S01700004763634170706C69636174696F6E312E737265635B
S11300000C942A000C943C000C943C000C943C008E
S11300100C943C000C943C000C943C000C943C006C
S11300200C943C000C943C000C943C000C943C005C
S11300300C943C000C943C000C943C000C943C004C
S11300400C943C000C943C000C943C000C943C003C
S11300500C943C0011241FBECFE5D8E0DEBFCDBF19
S113006020E0A0E6B0E001C01D92AE36B207E1F791
S11300700E94D3000C94EF010C940000E1E6F0E040
S1130080118281E48083128291E0948383831582B8
S113009092E097838683108693E092878187138604
S11300A0CF010E94AE0084E690E00E94AE0087E695
S11300B090E00E94AE008AE690E00E94AE0060E00C
S11300C082E40E94A7001092600010926D000895CF
S11300D040E650E060E082E40E94AB008091600062
S11300E08130A1F580916D008F5F80936D00853024
S11300F060F490E001979C01220F331F820F931F3D
S11301008F599F4F0E94BA0010C0893018F0109286
S11301106D000BC090E005979C01220F331F820FE6
S1130120931F8F599F4F0E94C70040E650E060E044
S113013082E40E94AB0006C040E650E060E082E446
S11301400E94AB00809160008130B1F3089540E0DB
S11301500E94D80008950E94B8010895CF93DF93B8
S1130160EC0141E0698188810E94D8001A82DF9104
S1130170CF910895CF93DF93EC0141E069818881A9
S11301800E94480181E08A83DF91CF910895CF9343
S1130190DF93EC0140E0698188810E9448011A8262
S11301A0DF91CF9108950E943E000E946800FDCF28
S11301B0823419F118F4813439F008958334B1F19B
S11301C0843409F44CC0089541110CC02AB381E071
S11301D090E002C0880F991F6A95E2F78095822308
S11301E08ABB08952AB381E090E002C0880F991F6A
S11301F06A95E2F7822B8ABB089541110CC027B39C
S113020081E090E002C0880F991F6A95E2F780951B
S1130210822387BB089527B381E090E002C0880F52
S1130220991F6A95E2F7822B87BB089541110CC090
S113023024B381E090E002C0880F991F6A95E2F729
S11302408095822384BB089524B381E090E002C0AA
S1130250880F991F6A95E2F7822B84BB0895411198
S11302600CC021B381E090E002C0880F991F6A9509
S1130270E2F78095822381BB089521B381E090E069
S113028002C0880F991F6A95E2F7822B81BB0895FB
S1130290823419F118F4813439F008958334B1F1BA
S11302A0843409F44CC0089541110CC02BB381E08F
S11302B090E002C0880F991F6A95E2F78095822327
S11302C08BBB08952BB381E090E002C0880F991F87
S11302D06A95E2F7822B8BBB089541110CC028B3B9
S11302E081E090E002C0880F991F6A95E2F780953B
S11302F0822388BB089528B381E090E002C0880F70
S1130300991F6A95E2F7822B88BB089541110CC0AE
S113031025B381E090E002C0880F991F6A95E2F747
S11303208095822385BB089525B381E090E002C0C7
S1130330880F991F6A95E2F7822B85BB08954111B6
S11303400CC022B381E090E002C0880F991F6A9527
S1130350E2F78095822382BB089522B381E090E086
S113036002C0880F991F6A95E2F7822B82BB089519
S11303708234A1F018F4813431F008958334C9F043
S1130380843411F1089589B390E002C0959587955E
S11303906A95E2F78170FA018083089586B390E04C
S11303A002C0959587956A95E2F78170FA0180837A
S11303B0089583B390E002C0959587956A95E2F716
S11303C08170FA018083089580B390E002C095950E
S11303D087956A95E2F78170FA0180830895F8940D
S10503E0FFCF49
S9030000FC
