S00D000041544D5F322E73726563A4
S11300000C9448000C9465000C9465000C94500505
S11300100C9465000C9465000C9465000C946500C8
S11300200C9465000C9465000C9465000C940D0D03
S11300300C9465000C9465000C9465000C946500A8
S11300400C9465000C9465000C9465000C94650098
S11300500C9465004E414E494E495459494E46CD83
S1130060CCCC3D0AD7233C17B7D13877CC2B32956B
S113007095E6241FB14F0A000020410000C8420049
S1130080401C4620BCBE4CCA1B0E5AAEC59D740013
S113009011241FBECFE5D8E0DEBFCDBF10E0A0E63F
S11300A0B0E0ECE1F3E202C005900D92AC3FB10781
S11300B0D9F721E0ACEFB0E001C01D92AD33B20737
S11300C0E1F70E9438090C948C110C940000DF9223
S11300D0EF92FF920F931F93CF93DF930F2EF5E0D0
S11300E0DF2EF02DD0922C0110922B0110920601DC
S11300F0E7E0F1E0C2E00C2FC283D3E03D2FD583CB
S1130100EC2EC08381E0182F8383FC2EC1832C2F17
S1130110C4834C2FC68384E0582F87836D2DD086EB
S113012086E0782F818787E082870E94E806E2E3F1
S1130130F1E0148215824D2FD0835D2FD1836C2F73
S1130140C2837D2DD38280E090E00E94C605E4E066
S1130150F1E0D083D18380910401909105010E9444
S1130160BC05E1E0F1E0D083C1838091010190916D
S113017002010E94650540E062E081E00E943D09C1
S113018084B7806484BF8BB780628BBF8FB7826073
S11301908FBF7894DF91CF911F910F91FF90EF90D3
S11301A0DF9008958F929F92AF92CF92DF92EF9259
S11301B0FF920F931F93E0900701F09008010091C4
S11301C0090110910A0120910B0130910C01409119
S11301D00D0150910E0160910F01709110018091F9
S11301E011010E9417090F2EF0E68F2EF0E09F2ECA
S11301F0F02D0F2EF5E0AF2EF02DC12CE09007016D
S1130200F09008010091090110910A0120910B015D
S113021030910C0140910D0150910E0160910F013C
S113022070911001809111010E948D0860E070E0CE
S11302308AE794E40E94930BE0900701F090080190
S11302400091090110910A0120910B0130910C01D8
S113025040910D0150910E0160910F0170911001B8
S1130260809111010E9417090F2EF8E6CF2EF0E0BD
S1130270DF2EF02DE0900701F090080100910901B4
S113028010910A0120910B0130910C0140910D0154
S113029050910E0160910F01709110018091110134
S11302A00E94FF071F910F91FF90EF90DF90CF9076
S11302B0AF909F908F900895EF92FF920F931F93AA
S11302C0CF93DF93CDB7DEB728970FB6F894DEBF90
S11302D00FBECDBF4B835C836D837E838F839887F2
S11302E079019E012F5F3F4F0E94F60560E070E0A8
S11302F088E492E40E94930BBE016E5F7F4FC701B6
S11303000E946A0560E070E080EA91E40E94930B29
S11303101DC09E012F5F3F4F4B815C816D817E81AB
S11303208F8198850E94F60560E070E088E492E48D
S11303300E94930BBE016E5F7F4FC7010E946A0546
S113034060E070E080E291E40E94930B89818C303C
S113035019F49A819C30E9F28C3019F0F801808309
S113036005C08A818C3011F0F801808328960FB67D
S1130370F894DEBF0FBECDBFDF91CF911F910F91D7
S1130380FF90EF9008956F927F928F929F92AF9219
S1130390CF92DF92EF92FF920F931F93CF93DF934D
S11303A000D000D0CDB7DEB73C01E0900701F0905B
S11303B008010091090110910A0120910B0130916B
S11303C00C0140910D0150910E0160910F0170914B
S11303D01001809111010E9417090F2EF6E78F2E4C
S11303E0F0E09F2EF02DA12CC12CE0900701F0909D
S11303F008010091090110910A0120910B0130912B
S11304000C0140910D0150910E0160910F0170910A
S11304101001809111010E948D08D12C41C02091BE
S11304200101309102018E010F5F1F4F4091320193
S113043050913301609134017091350180913601FE
S1130440909137010E945C010F2EF5E0AF2EF02D44
S1130450AD0C0F2EF5E88F2EF0E09F2EF02DCC245E
S1130460C394E0900701F0900801009109011091F4
S11304700A0120910B0130910C0140910D01509122
S11304800E0160910F0170911001809111010E9481
S11304908D0860E070E088E492E40E94930BD394AA
S11304A083E08D1508F0BBCF20910101309102014A
S11304B009E311E04091320150913301609134011C
S11304C07091350180913601909137010E945C0151
S11304D014C0209101013091020109E311E040911F
S11304E03201509133016091340170913501809152
S11304F03601909137010E945C01809139018B3063
S113050041F7CE010196F301918380830F900F9000
S11305100F900F90DF91CF911F910F91FF90EF906B
S1130520DF90CF90AF909F908F907F906F900895C1
S113053027E830E0FC01208328E930E0248B08958B
S11305406F927F928F929F92AF92CF92DF92EF92AF
S1130550FF920F931F93CF93DF93CDB7DEB7299705
S11305600FB6F894DEBF0FBECDBF3C0188E0EAEAC7
S1130570F0E0DE01119601900D928A95E1F7E0908A
S11305800701F09008010091090110910A012091DE
S11305900B0130910C0140910D0150910E016091BD
S11305A00F0170911001809111010E9417090F2E03
S11305B0FDE98F2EF0E09F2EF02D0F2EF3E0AF2EED
S11305C0F02DC12CE0900701F09008010091090181
S11305D010910A0120910B0130910C0140910D0101
S11305E050910E0160910F017091100180911101E1
S11305F00E948D08CE0101964C01CC24C394E09056
S11306000701F09008010091090110910A0120915D
S11306100B0130910C0140910D0150910E0160913C
S11306200F0170911001809111010E948D08D12C4D
S113063045C094E0D91201C0D394209101013091B6
S113064002018E01075F1F4F409132015091330127
S11306506091340170913501809136019091370198
S11306600E945C01E1E0F0E0EC0FFD1FED0DF11DD7
S11306708985805D80830F2EF3E0AF2EF02DAD0CC5
S1130680FE0131964F01CC24C394E0900701F09011
S113069008010091090110910A0120910B01309188
S11306A00C0140910D0150910E0160910F01709168
S11306B01001809111010E948D08D394F6E0FD157C
S11306C008F0B7CFCE0101960E94850FF301608335
S11306D071838283938329960FB6F894DEBF0FBE8D
S11306E0CDBFDF91CF911F910F91FF90EF90DF90DD
S11306F0CF90AF909F908F907F906F9008958F923E
S11307009F92AF92CF92DF92EF92FF920F931F933B
S1130710CF93DF93CDB7DEB7A0970FB6F894DEBFC3
S11307200FBECDBF809106018130E1F5E090070155
S1130730F09008010091090110910A0120910B0128
S113074030910C0140910D0150910E0160910F0107
S113075070911001809111010E9417090F2EF2EB84
S11307608F2EF0E09F2EF02D0F2EF3E0AF2EF02D04
S1130770C12CE0900701F09008010091090110914B
S11307800A0120910B0130910C0140910D0150910F
S11307900E0160910F0170911001809111010E946E
S11307A08D086CC180912C01853031F40E94D200F7
S11307B084E080932C0162C180912B01813009F087
S11307C05DC1E0900701F0900801009109011091CA
S11307D00A0120910B0130910C0140910D015091BF
S11307E00E0160910F0170911001809111010E941E
S11307F017090F2EF5EC8F2EF0E09F2EF02D0F2E03
S1130800F3E0AF2EF02DC12CE0900701F090080129
S11308100091090110910A0120910B0130910C0102
S113082040910D0150910E0160910F0170911001E2
S1130830809111010E948D080F2EF3ED8F2EF0E0B0
S11308409F2EF02DA12CCC24C394E0900701F090AE
S113085008010091090110910A0120910B013091C6
S11308600C0140910D0150910E0160910F017091A6
S11308701001809111010E948D08CE0105960E94FD
S1130880980210920301CE0101960E94C301809147
S113089003018F5F80930301823008F46DC0E09000
S11308A00701F09008010091090110910A012091BB
S11308B00B0130910C0140910D0150910E0160919A
S11308C00F0170911001809111010E9417090F2EE0
S11308D0FFED8F2EF0E09F2EF02D0F2EF3E0AF2EC4
S11308E0F02DC12CE0900701F0900801009109015E
S11308F010910A0120910B0130910C0140910D01DE
S113090050910E0160910F017091100180911101BD
S11309100E948D080F2EFBEE8F2EF0E09F2EF02DFF
S1130920A12CCC24C394E0900701F090080100911D
S1130930090110910A0120910B0130910C014091A1
S11309400D0150910E0160910F0170911001809181
S113095011010E948D0860E070E08AE794E40E942F
S1130960930B61E080910401909105010E94C105FF
S113097081E08093060182C0CE014D960E94A002C0
S1130980E0900701F09008010091090110910A011B
S113099020910B0130910C0140910D0150910E01F9
S11309A060910F0170911001809111010E9417094B
S11309B06D8D7E8D8F8D98A10E94300E6B01E0901D
S11309C00701F09008010091090110910A0120919A
S11309D00B0130910C0140910D0150910E01609179
S11309E00F0170911001809111010E94D50860E0FF
S11309F070E08AE794E40E94930BE0900701F09082
S1130A0008010091090110910A0120910B01309114
S1130A100C0140910D0150910E0160910F017091F4
S1130A201001809111010E9417090F2EF9EF8F2EEA
S1130A30F0E09F2EF02D0F2EF3E0AF2EF02DC12C01
S1130A40E0900701F09008010091090110910A015A
S1130A5020910B0130910C0140910D0150910E0138
S1130A6060910F0170911001809111010E948D0815
S1130A7060E070E08AE794E40E94930BA0960FB6BE
S1130A80F894DEBF0FBECDBFDF91CF911F910F91C0
S1130A90FF90EF90DF90CF90AF909F908F9008954C
S1130AA01F920F920FB60F9211248F939F939091E0
S1130AB02B0181E0911180E080932B019F918F9114
S1130AC00F900FBE0F901F90189540E0692F0E9461
S1130AD03D090895EF92FF920F931F93CF93DF93F5
S1130AE000D01F92CDB7DEB78B0119821B821A8208
S1130AF0F92EE82EAE014F5F5F4F692F0E942B0A3B
S1130B008981813061F527C060E070E088E492E477
S1130B100E94930B8A819B81C2969B838A83AE0138
S1130B204F5F5F4F6F2D8E2D0E942B0A898181119B
S1130B3009C08A819B818C3D954020F48AE0F801AC
S1130B40808309C08A819B818C3D954020F08BE095
S1130B50F801808307C089818130B1F203C08CE041
S1130B60F80180830F900F900F90DF91CF911F9128
S1130B700F91FF90EF90089540E0692F0E943D0986
S1130B800895462F692F0E94B40908951F93CF93A7
S1130B90DF9300D000D000D0CDB7DEB749835A83AD
S1130BA06B837C838D839E8310E007C06C81610F0F
S1130BB040E08E810E943D091F5F8A811817B0F3BF
S1130BC010E007C06B81610F41E08D810E943D09F7
S1130BD01F5F89811817B0F326960FB6F894DEBF0D
S1130BE00FBECDBFDF91CF911F910895BF92CF92D9
S1130BF0DF92EF92FF920F931F93CF93DF93CDB7C2
S1130C00DEB727970FB6F894DEBF0FBECDBF4A8379
S1130C105B836C837D838E839F8379018CE0F901F0
S1130C20808300E038C0DC80D00EBE8041E06D2DB2
S1130C308B2D0E94B40910E01FC060E070E080EFCB
S1130C4091E40E94930B6D81610FAE014F5F5F4F82
S1130C508F810E942B0A8981813069F41C9D000DCB
S1130C6011240F5FF701008360E070E088E492E4F0
S1130C700E94930B13C01F5F8B811817F0F260E082
S1130C8070E080EF91E40E94930B40E06D2D8B2D7A
S1130C900E94B4090F5FCA800C1528F227960FB67C
S1130CA0F894DEBF0FBECDBFDF91CF911F910F919E
S1130CB0FF90EF90DF90CF90BF900895CF92DF9296
S1130CC0EF92FF920F931F93CF93DF93CDB7DEB7CD
S1130CD02C970FB6F894DEBF0FBECDBF8E2DFB82CE
S1130CE00C83612F2E833F834887198240E00E9442
S1130CF0B40940E06E818B810E94B40960E070E029
S1130D0080E89FE30E94930B0F811C8141E0602FD8
S1130D10812F0E94B40960E070E080E89FE30E94A4
S1130D20930BF884BE016F5F7F4F8F2D0E94650A7D
S1130D3069816F708C2D807F682B69838F2D0E9451
S1130D40830A60E070E080E89FE30E94930B40E038
S1130D50602F812F0E94B40960E070E080E89FE377
S1130D600E94930B41E0602F812F0E94B409BE01C1
S1130D706F5F7F4F8F2D0E94650A80E1C89E6001DE
S1130D80112469816F706C2969838F2D0E94830AF5
S1130D9060E070E080E89FE30E94930B40E0602FE6
S1130DA0812F0E94B40960E070E080E89FE30E9414
S1130DB0930B2C960FB6F894DEBF0FBECDBFDF9118
S1130DC0CF911F910F91FF90EF90DF90CF900895F6
S1130DD0CF92EF92FF920F931F93CF93DF93CDB7F0
S1130DE0DEB72B970FB6F894DEBF0FBECDBFE982F6
S1130DF0FA820B831C832D833E834F835887698734
S1130E007A878B8741E0632F802F0E943D0941E060
S1130E106C8189810E943D0941E06D818A810E9433
S1130E203D091F8141E06885812F0E943D0941E011
S1130E306985812F0E943D0941E06A85812F0E94C6
S1130E403D0941E06B85812F0E943D096894CC24C3
S1130E50C1F8E980FA800B811C812D813E814F818C
S1130E60588569857A858B850E945E060F2EF8E287
S1130E70CF2EF02DE980FA800B811C812D813E81DB
S1130E804F81588569857A858B850E945E060F2E71
S1130E90FCE0CF2EF02DE980FA800B811C812D819E
S1130EA03E814F81588569857A858B850E945E06CF
S1130EB0CC24C394E980FA800B811C812D813E816E
S1130EC04F81588569857A858B850E945E062B96AD
S1130ED00FB6F894DEBF0FBECDBFDF91CF911F9147
S1130EE00F91FF90EF90CF900895CF92DF92EF9201
S1130EF0FF920F931F93CF93DF93CDB7DEB72C9759
S1130F000FB6F894DEBF0FBECDBF8E2DFB820C83CF
S1130F10612F2E833F834887198241E00E94B409E0
S1130F2040E06E818B810E94B40960E070E080E84B
S1130F309FE30E94930B0F811C8141E0602F812F5E
S1130F400E94B40960E070E080E89FE30E94930B84
S1130F50F884BE016F5F7F4F8F2D0E94650A6981FF
S1130F606F708C2D807F682B69838F2D0E94830A7C
S1130F7060E070E080E89FE30E94930B40E0602F04
S1130F80812F0E94B40960E070E080E89FE30E9432
S1130F90930B41E0602F812F0E94B409BE016F5F63
S1130FA07F4F8F2D0E94650A80E1C89E6001112445
S1130FB069816F706C2969838F2D0E94830A60E0B8
S1130FC070E080E89FE30E94930B40E0602F812F44
S1130FD00E94B40960E070E080E89FE30E94930BF4
S1130FE02C960FB6F894DEBF0FBECDBFDF91CF9124
S1130FF01F910F91FF90EF90DF90CF900895AF92E3
S1131000BF92CF92DF92EF92FF920F931F93CF93F1
S1131010DF93CDB7DEB72B970FB6F894DEBF0FBEC4
S1131020CDBFE982FA820B831C832D833E834F83D9
S1131030588769877A878B875601D12C0EC0E9803F
S1131040FA800B811C812D813E814F8158856985F1
S11310507A858B850E947507D394F501ED0DF11DFA
S1131060C080C110ECCF2B960FB6F894DEBF0FBE34
S1131070CDBFDF91CF911F910F91FF90EF90DF9043
S1131080CF90BF90AF900895AF92CF92EF92FF921E
S11310900F931F93CF93DF93CDB7DEB72B970FB684
S11310A0F894DEBF0FBECDBFE982FA820B831C83A6
S11310B02D833E834F83588769877A878B879C2D3E
S11310C08A2D913039F058F0923031F0933031F06C
S11310D080E005C0805C03C0805F01C0805B8068E5
S11310E0C82EE980FA800B811C812D813E814F81BD
S11310F0588569857A858B850E945E062B960FB686
S1131100F894DEBF0FBECDBFDF91CF911F910F9139
S1131110FF90EF90CF90AF9008955F926F927F927F
S11311208F929F92AF92BF92CF92DF92EF92FF92F3
S11311300F931F93CF93DF93CDB7DEB72B970FB6E3
S1131140F894DEBF0FBECDBFE982FA820B831C8305
S11311502D833E834F83588769877A878B870E94C4
S113116044086401E980FA800B811C812D813E8151
S11311704F81588569857A858B850E94FF072B9658
S11311800FB6F894DEBF0FBECDBFDF91CF911F9194
S11311900F91FF90EF90DF90CF90BF90AF909F9012
S11311A08F907F906F905F900895CF92DF92EF922F
S11311B0FF920F931F93CF93DF93CDB7DEB76B9757
S11311C00FB6F894DEBF0FBECDBFE98AFA8A0B8B47
S11311D01C8B2D8B3E8B4F8B588F698F7A8F8B8F07
S11311E0C6014AE050E0BE016F5F7F4F0E94890F45
S11311F0CE0101966C01E988FA880B891C892D8936
S11312003E894F89588D698D7A8D8B8D0E94FF0799
S11312106B960FB6F894DEBF0FBECDBFDF91CF91B2
S11312201F910F91FF90EF90DF90CF900895CF9290
S1131230EF92FF920F931F93CF93DF93CDB7DEB757
S11312402B970FB6F894DEBF0FBECDBFCC24C3944A
S11312500E945E062B960FB6F894DEBF0FBECDBF7C
S1131260DF91CF911F910F91FF90EF90CF90089550
S11312700E9467000E947F03FDCF813011F130F09E
S11312808230D1F1833009F452C06CC041110DC0D9
S11312902AB381E090E002C0880F991F6A95E2F7B3
S11312A0809582238ABB81E008952AB381E090E08F
S11312B002C0880F991F6A95E2F7822B8ABB81E0EE
S11312C0089541110DC027B381E090E002C0880F5A
S11312D0991F6A95E2F78095822387BB81E0089580
S11312E027B381E090E002C0880F991F6A95E2F766
S11312F0822B87BB81E0089541110DC024B381E0A6
S113130090E002C0880F991F6A95E2F780958223C6
S113131084BB81E0089524B381E090E002C0880F8B
S1131320991F6A95E2F7822B84BB81E008954111ED
S11313300DC021B381E090E002C0880F991F6A9527
S1131340E2F78095822381BB81E0089521B381E097
S113135090E002C0880F991F6A95E2F7822B81BB47
S113136081E0089580E00895813011F130F08230F9
S1131370D1F1833009F452C06CC041110DC02BB3BC
S113138081E090E002C0880F991F6A95E2F780958A
S113139082238BBB81E008952BB381E090E002C0EF
S11313A0880F991F6A95E2F7822B8BBB81E0089521
S11313B041110DC028B381E090E002C0880F991F4D
S11313C06A95E2F78095822388BB81E0089528B36B
S11313D081E090E002C0880F991F6A95E2F7822BA2
S11313E088BB81E0089541110DC025B381E090E0F0
S11313F002C0880F991F6A95E2F78095822385BB06
S113140081E0089525B381E090E002C0880F991F20
S11314106A95E2F7822B85BB81E0089541110DC0E6
S113142022B381E090E002C0880F991F6A95E2F729
S11314308095822382BB81E0089522B381E090E00D
S113144002C0880F991F6A95E2F7822B82BB81E064
S1131450089580E00895813091F028F08230D9F029
S1131460833029F130C089B390E002C09595879507
S11314706A95E2F78170FA01808381E0089586B36A
S113148090E002C0959587956A95E2F78170FA011C
S1131490808381E0089583B390E002C09595879599
S11314A06A95E2F78170FA01808381E0089580B340
S11314B090E002C0959587956A95E2F78170FA01EC
S11314C0808381E0089580E00895813059F028F008
S11314D0823069F0833081F014C089B3FB018083CA
S11314E081E0089586B3FB01808381E0089583B38E
S11314F0FB01808381E0089580B3FB01808381E058
S1131500089580E00895813049F028F0823049F050
S1131510833051F00CC06BBB81E0089568BB81E05F
S1131520089565BB81E0089562BB81E0089580E081
S11315300895CF92DF92EF92FF92CF93DF936B01E6
S11315407C01EA012CEE31E143E853E40E94B90D39
S113155018160CF453C028EB3EE145E85EE3C701DE
S1131560B6010E94B90D18162CF081E090E0998321
S1131570888345C023E333E343E050E4C701B60165
S11315800E94B90D181634F088E090E0998388839E
S113159081E035C02DE33AE043E851E4C701B601E8
S11315A00E94B90D181634F080E490E09983888382
S11315B081E025C02BE734E143E852E4C701B601DA
S11315C00E94B90D181634F080E091E09983888365
S11315D081E015C02CEE31E143E853E4C701B601C4
S11315E00E94B90D181634F080E094E09983888342
S11315F081E005C01982188281E001C080E0DF919A
S1131600CF91FF90EF90DF90CF900895CF93DF9329
S1131610EB018034910581F130F48130910561F062
S11316200897D1F059C0811561E09607A9F1811599
S1131630944009F441C050C068EB7EE185E89EE324
S11316400E944C0D2FE632E143E85AE30E94BE0D9E
S11316500E94370E688341C063E373E383E090E440
S11316600E944C0D2FE632E143E05CE30E94BE0D84
S11316700E94370E688331C06DE37AE083E891E419
S11316800E944C0D2FE632E143E85DE30E94BE0D5B
S11316900E94370E688321C06BE774E183E892E40B
S11316A00E944C0D2FE632E143E85EE30E94BE0D3A
S11316B00E94370E688311C06CEE71E183E893E4F5
S11316C00E944C0D2FE632E143E85FE30E94BE0D19
S11316D00E94370E688301C01882DF91CF9108956C
S11316E080349105A9F030F48130910559F00897C0
S11316F061F017C0811521E0920769F081159440CB
S113170069F00FC081E883BF089582E883BF08951C
S113171083E883BF089584E883BF089585E883BF81
S1131720089513BE08958F929F92AF92BF92CF9265
S1131730DF92EF92FF921F93CF93DF93CDB7DEB783
S113174027970FB6F894DEBF0FBECDBF6B017C01A7
S1131750AE014F5F5F4F0E94990A882371F0A70181
S11317609601BE016D5F7F4F89819A810E94060BAD
S11317701C821D821E821F8211C080E094E09A8325
S113178089832CEE31E143E853E4C701B6010E949A
S1131790BE0D6C837D838E839F831B82CC80DD8012
S11317A0EE80FF80C701B6010E94370E162F70E04D
S11317B080E090E00E94680E9B01AC01C701B60175
S11317C00E944C0D2CEE31E143E853E40E94180FC3
S11317D00E94370EF62E8B8182BF111108C08981B9
S11317E09A810E94700B08B600FEFDCF00C185E807
S11317F083BF07C008B600FEFDCF115088B78160D3
S113180088BF1111F7CFFF2009F453C06F2D70E08A
S113181080E090E00E94680E4B015C0128EB3EE101
S113182045E85EE30E94B90D18162CF081E090E0C3
S11318309A8389833EC023E333E343E050E4C50144
S1131840B4010E94B90D18162CF088E090E09A8338
S113185089832FC02DE33AE043E851E4C501B40184
S11318600E94B90D18162CF080E490E09A838983C5
S113187020C02BE734E143E852E4C501B4010E94DF
S1131880B90D18162CF080E091E09A83898311C079
S11318902CEE31E143E853E4C501B4010E94B90DD3
S11318A018162CF080E094E09A83898302C01A828F
S11318B0198289819A818034910509F445C030F4F4
S11318C08130910569F0089729F18CC0811521E0D8
S11318D0920709F453C08115944009F469C082C089
S11318E06F2D70E080E090E00E94680E9B01AC01D7
S11318F068EB7EE185E89EE30E944C0D2FE632E121
S113190043E85AE30E94BE0D0E94370E62BF81E88D
S113191083BF6AC06F2D70E080E090E00E94680E83
S11319209B01AC0163E373E383E090E40E944C0DFC
S11319302FE632E143E05CE30E94BE0D0E94370EC5
S113194062BF82E883BF50C06F2D70E080E090E0FA
S11319500E94680E9B01AC016DE37AE083E891E498
S11319600E944C0D2FE632E143E85DE30E94BE0D78
S11319700E94370E62BF83E883BF36C06F2D70E0CC
S113198080E090E00E94680E9B01AC016BE774E17B
S113199083E892E40E944C0D2FE632E143E85EE3D3
S11319A00E94BE0D0E94370E62BF84E883BF1CC034
S11319B06F2D70E080E090E00E94680E9B01AC0106
S11319C06CEE71E183E893E40E944C0D2FE632E162
S11319D043E85FE30E94BE0D0E94370E62BF85E8B4
S11319E083BF02C012BE13BE08B600FEFDCF88B787
S11319F0816088BF13BE27960FB6F894DEBF0FBE72
S1131A00CDBFDF91CF911F91FF90EF90DF90CF90EA
S1131A10BF90AF909F908F9008951F920F920FB632
S1131A200F9211242F933F934F935F936F937F9360
S1131A308F939F93AF93BF93EF93FF93E091FF0036
S1131A40F09100013097B9F08091FE00882379F07D
S1131A508091FD008F5F8093FD009091FD00809147
S1131A60FE00981308C009951092FD0004C0099562
S1131A708091FC0082BFFF91EF91BF91AF919F9144
S1131A808F917F916F915F914F913F912F910F9023
S1131A900FBE0F901F9018955058BB27AA270E947D
S1131AA0640D0C94DE0E0E94D00E38F00E94D70E06
S1131AB020F039F49F3F19F426F40C94CD0E0EF463
S1131AC0E095E7FB0C94C70EE92F0E94EF0E58F344
S1131AD0BA17620773078407950720F079F4A6F50F
S1131AE00C94110F0EF4E0950B2EBA2FA02D0B01C0
S1131AF0B90190010C01CA01A0011124FF27591B4F
S1131B0099F0593F50F4503E68F11A16F040A22F54
S1131B10232F342F4427585FF3CF469537952795C5
S1131B20A795F0405395C9F77EF41F16BA0B620BC4
S1131B30730B840BBAF09150A1F0FF0FBB1F661F0B
S1131B40771F881FC2F70EC0BA0F621F731F841F4E
S1131B5048F4879577956795B795F7959E3F08F074
S1131B60B0CF9395880F08F09927EE0F9795879536
S1131B7008950E94A30E08F481E008950E94D20DF6
S1131B800C94DE0E0E94D70E58F00E94D00E40F046
S1131B9029F45F3F29F00C94C70E51110C94120FD5
S1131BA00C94CD0E0E94EF0E68F39923B1F35523E4
S1131BB091F3951B550BBB27AA276217730784075C
S1131BC038F09F5F5F4F220F331F441FAA1FA9F3F2
S1131BD035D00E2E3AF0E0E832D091505040E695E0
S1131BE0001CCAF72BD0FE2F29D0660F771F881F41
S1131BF0BB1F261737074807AB07B0E809F0BB0B34
S1131C00802DBF01FF2793585F4F3AF09E3F510547
S1131C1078F00C94C70E0C94120F5F3FE4F3983ED7
S1131C20D4F3869577956795B795F7959F5FC9F730
S1131C30880F911D9695879597F90895E1E0660FB1
S1131C40771F881FBB1F621773078407BA0720F02A
S1131C50621B730B840BBA0BEE1F88F7E095089593
S1131C600E94370E6894B1110C94120F08950E94CB
S1131C70F70E88F09F5798F0B92F9927B751B0F015
S1131C80E1F0660F771F881F991F1AF0BA95C9F7FC
S1131C9014C0B13091F00E94110FB1E008950C947A
S1131CA0110F672F782F8827B85F39F0B93FCCF32D
S1131CB0869577956795B395D9F73EF49095809579
S1131CC0709561957F4F8F4F9F4F0895E89409C099
S1131CD097FB3EF490958095709561957F4F8F4F5B
S1131CE09F4F9923A9F0F92F96E9BB279395F69571
S1131CF0879577956795B795F111F8CFFAF4BB0FEF
S1131D0011F460FF1BC06F5F7F4F8F4F9F4F16C052
S1131D10882311F096E911C0772321F09EE8872FDC
S1131D20762F05C0662371F096E8862F70E060E098
S1131D302AF09A95660F771F881FDAF7880F969511
S1131D40879597F90895990F0008550FAA0BE0E8B5
S1131D50FEEF16161706E807F907C0F01216130669
S1131D60E407F50798F0621B730B840B950B39F4A9
S1131D700A2661F0232B242B252B21F408950A260F
S1131D8009F4A140A6958FEF811D811D089597F94F
S1131D909F6780E870E060E008959FEF80EC08950D
S1131DA000240A9416161706180609060895002436
S1131DB00A9412161306140605060895092E0394B0
S1131DC0000C11F4882352F0BB0F40F4BF2B11F424
S1131DD060FF04C06F5F7F4F8F4F9F4F089557FD83
S1131DE09058440F551F59F05F3F71F04795880F85
S1131DF097FB991F61F09F3F79F08795089512161C
S1131E0013061406551FF2CF4695F1DF08C01616C7
S1131E1017061806991FF1CF869571056105089478
S1131E200895E894BB2766277727CB0197F908958F
S1131E300E942B0F0C94DE0E0E94D00E38F00E94EC
S1131E40D70E20F0952311F00C94C70E0C94CD0EF0
S1131E5011240C94120F0E94EF0E70F3959FC1F39E
S1131E60950F50E0551F629FF001729FBB27F00D44
S1131E70B11D639FAA27F00DB11DAA1F649F662799
S1131E80B00DA11D661F829F2227B00DA11D621FE8
S1131E90739FB00DA11D621F839FA00D611D221FA2
S1131EA0749F3327A00D611D231F849F600D211D86
S1131EB0822F762F6A2F11249F5750409AF0F1F009
S1131EC088234AF0EE0FFF1FBB1F661F771F881F72
S1131ED091505040A9F79E3F510580F00C94C70ED5
S1131EE00C94120F5F3FE4F3983ED4F386957795F4
S1131EF06795B795F795E7959F5FC1F7FE2B880F18
S1131F00911D9695879597F90895662777270C94E0
S1131F10B90F4532510520F4423010F00C94940F5F
S1131F20FB011082CB010895BB274A3031F4992379
S1131F3022F4BDE2909581959F4F0C94A00FBB278E
S1131F40FB015527AA27880F991FAA1FA41710F071
S1131F50A41B83955051B9F7A05DAA3308F0A95D7D
S1131F60A193009779F7B111B1931192CB010C941D
S1131F702811A0E0B0E0EFEBFFE00C944C11EC0171
S1131F806B016115710519F0FB01918380837E015A
S1131F90FFEFEF1AFF0A0881802F90E00E940711DB
S1131FA0892B11F0E701F3CF0D3239F47E0182E081
S1131FB0E80EF11C098111E008C00B3229F47E01FE
S1131FC092E0E90EF11C098110E0E701219743E05A
S1131FD050E06CE570E0CE010E941011892BC1F431
S1131FE0239645E050E067E570E0CE010E941011B1
S1131FF0892B09F42596C114D10419F0F601D18373
S1132000C0831111F6C060E070E080E89FE7FAC079
S113201043E050E064E570E0CE010E941011892B8A
S113202059F4C114D10409F4E9C0F2E0EF0EF11C33
S1132030F601F182E082E2C020E030E0A901C0E0D4
S1132040D0E0F70180EDA82EA00E89E08A1530F1CA
S1132050912F9260B92E812F887012FF04C08111D4
S113206024C0219622C081112197A5E0B0E00E94EE
S11320703B11DC01CB01880F991FAA1FBB1F9C01D8
S1132080AD012A0D311D411D511D283989E938073B
S1132090480789E1580748F0166006C09EEFA91268
S11320A00AC013FD40C01860B12E8FEFE81AF80A79
S11320B000811B2DC6CF802F8F7D8534A1F58081B3
S11320C08D3211F4106106C08B3221F0319661E03B
S11320D070E004C08181329662E070E080538A30FF
S11320E018F0E61BF70B1FC060E070E060389CE05E
S11320F079075CF4DB01AA0FBB1FAA0FBB1F6A0F91
S11321007B1F660F771F680F711D3196DF011197D2
S11321108C9180538A3050F314FF03C071956195FC
S11321207109C60FD71F11FF08C0C114D10429F0CB
S1132130CF010197F60191838083CA01B9010E94FE
S1132140660E212F2370233019F04B015C0106C069
S11321504B015C01B7FAB094B7F8B09420E030E0DA
S1132160A901C501B4010E94B90D882309F43EC038
S1132170D7FF06C0D195C195D10903E710E002C08D
S11321800BE810E06801F8E1CF1AD10890E2E92EDB
S1132190F12CCE15DF0574F0F801259135914591A8
S11321A05491C501B4010E94180F4B015C01CE1972
S11321B0DF09EFCF04501109F594E7940C151D05C0
S11321C041F78A2D880F8B2D881F8F3F49F020E01F
S11321D030E0A901C501B4010E94B90D811106C006
S11321E082E290E090933C0180933B01C501B401ED
S11321F009C060E070E080E89FEF04C060E070E038
S113220080EC9FE7CDB7DEB7ECE00C946811911138
S11322100C943811803219F089508550C8F708950C
S1132220FB01DC014150504088F08D9181341CF059
S11322308B350CF4805E659161341CF06B350CF4C5
S1132240605E861B611171F3990B0895881BFCCFA6
S1132250DC01FC01672F71917723E1F7329704C009
S11322607C916D9370836291AE17BF07C8F3089594
S11322709927882708950E947D11A59F900DB49FEA
S1132280900DA49F800D911D112408952F923F92CB
S11322904F925F926F927F928F929F92AF92BF9272
S11322A0CF92DF92EF92FF920F931F93CF93DF931E
S11322B0CDB7DEB7CA1BDB0B0FB6F894DEBF0FBE7B
S11322C0CDBF09942A88398848885F846E847D84C8
S11322D08C849B84AA84B984C884DF80EE80FD80CA
S11322E00C811B81AA81B981CE0FD11D0FB6F89440
S11322F0DEBF0FBECDBFED010895A29FB001B39F15
S1132300C001A39F700D811D1124911DB29F700DFA
S10F2310811D1124911D0895F894FFCF45
S113231C57454C434F4D4500496E736572742061AB
S113232C204361726400454E54455220594F555216
S113233C2050494E00580038393839333734363147
S113234C35343336383530003131323200454E5461
S113235C455220414D4F554E5400303030302E30C4
S113236C30004F555420464F52204D454E54454E47
S113237C414E4345004341524420446574656374A3
S113238C65640052454144494E47202E2E2E00418F
S113239C544D20424C4F434B454400494E56414CFE
S10F23AC4944532054525953004F4B0035
S9030000FC
