:100000000C942A000C9447000C9447000C94DE03D7
:100010000C9447000C9447000C9447000C94470044
:100020000C9447000C9447000C9447000C94530B1D
:100030000C9447000C9447000C9447000C94470024
:100040000C9447000C9447000C9447000C94470014
:100050000C94470011241FBECFE5D8E0DEBFCDBF12
:1000600010E0A0E6B0E0ECE8FBE102C005900D92E4
:10007000A03DB107D9F720E0A0EDB0E001C01D928E
:10008000A43FB207E1F70E947E070C94C40D0C94C4
:100090000000DF92EF92FF920F931F93CF93DF93B5
:1000A0001092F1001092E6001092DA00EBEDF0E011
:1000B000C2E00C2FC283D3E03D2FD583EC2EC0834A
:1000C00081E0182F8383FC2EC1832C2FC4834C2FF7
:1000D000C68384E0582F87830F2EF5E0DF2EF02DA6
:1000E0006D2DD08686E0782F818787E082870E94F9
:1000F0007005EBEEF0E0148215824D2FD0835D2F5A
:10010000D1836C2FC2837D2DD38280E090E00E944A
:100110005404E8EDF0E0D083D1838091D800909131
:10012000D9000E944A04E5EDF0E0D083C1838091BC
:10013000D5009091D6000E94F30340E062E081E098
:100140000E94830784B7806484BF8BB780628BBFB3
:100150008FB782608FBF7894DF91CF911F910F91FD
:10016000FF90EF90DF9008958F929F92AF92CF9281
:10017000DF92EF92FF920F931F93E090DB00F090DD
:10018000DC000091DD001091DE002091DF00309155
:10019000E0004091E1005091E2006091E300709135
:1001A000E4008091E5000E945D070F2EF0E68F2E9F
:1001B000F0E09F2EF02D0F2EF5E0AF2EF02DC12C8C
:1001C000E090DB00F090DC000091DD001091DE009B
:1001D0002091DF003091E0004091E1005091E20079
:1001E0006091E3007091E4008091E5000E941507A2
:1001F00060E070E08AE794E40E94D909E090DB00B7
:10020000F090DC000091DD001091DE002091DF0015
:100210003091E0004091E1005091E2006091E300F4
:100220007091E4008091E5000E945D070F2EF8E6D2
:10023000CF2EF0E0DF2EF02DE090DB00F090DC0020
:100240000091DD001091DE002091DF003091E00090
:100250004091E1005091E2006091E3007091E40070
:100260008091E5000E9487061F910F91FF90EF900B
:10027000DF90CF90AF909F908F900895EF92FF9274
:100280000F931F93CF93DF93CDB7DEB728970FB6A9
:10029000F894DEBF0FBECDBF4B835C836D837E833E
:1002A0008F83988779019E012F5F3F4F0E948404BE
:1002B000BE016E5F7F4FC7010E94F80360E070E0EF
:1002C00080E291E40E94D9091DC09E012F5F3F4F3B
:1002D0004B815C816D817E818F8198850E94840431
:1002E00060E070E080E291E40E94D909BE016E5F97
:1002F0007F4FC7010E94F80360E070E080E291E464
:100300000E94D90989818C3019F49A819C30E9F2D4
:100310008C3019F0F801808305C08A818C3011F08F
:10032000F801808328960FB6F894DEBF0FBECDBFCC
:10033000DF91CF911F910F91FF90EF9008958F92D1
:100340009F92AF92CF92EF92FF920F931F93CF9312
:100350008091DA008130E1F5E090DB00F090DC0084
:100360000091DD001091DE002091DF003091E0006F
:100370004091E1005091E2006091E3007091E4004F
:100380008091E5000E945D070F2EF6E78F2EF0E0CA
:100390009F2EF02D0F2EF3E0AF2EF02DC12CE0900C
:1003A000DB00F090DC000091DD001091DE00209178
:1003B000DF003091E0004091E1005091E200609157
:1003C000E3007091E4008091E5000E941507ECC104
:1003D0008091F100811106C00E94B40081E08093F9
:1003E000F100E2C18091E600813009F0DDC1E090CA
:1003F000DB00F090DC000091DD001091DE00209128
:10040000DF003091E0004091E1005091E200609106
:10041000E3007091E4008091E5000E945D070F2EDB
:10042000F9E88F2EF0E09F2EF02D0F2EF3E0AF2E87
:10043000F02DC12CE090DB00F090DC000091DD009D
:100440001091DE002091DF003091E0004091E1004A
:100450005091E2006091E3007091E4008091E5002A
:100460000E9415070F2EF7E98F2EF0E09F2EF02D3A
:10047000A12CCC24C394E090DB00F090DC00009130
:10048000DD001091DE002091DF003091E00040910E
:10049000E1005091E2006091E3007091E4008091EE
:1004A000E5000E9415071092D7008091D70088239D
:1004B000D1F1E090DB00F090DC000091DD001091C4
:1004C000DE002091DF003091E0004091E10050918A
:1004D000E2006091E3007091E4008091E5000E94E9
:1004E0005D070F2EF3EA8F2EF0E09F2EF02DA12C4A
:1004F000C12CE090DB00F090DC000091DD00109159
:10050000DE002091DF003091E0004091E100509149
:10051000E2006091E3007091E4008091E5000E94A8
:100520001507C0E079C0E090DB00F090DC0000919E
:10053000DD001091DE002091DF003091E00040915D
:10054000E1005091E2006091E3007091E40080913D
:10055000E5000E945D070F2EF5EB8F2EF0E09F2E39
:10056000F02DA12CC12CE090DB00F090DC0000917C
:10057000DD001091DE002091DF003091E00040911D
:10058000E1005091E2006091E3007091E4008091FD
:10059000E5000E941507C5CF2091D5003091D60007
:1005A00007EE10E04091EB005091EC006091ED00FF
:1005B0007091EE008091EF009091F0000E943E015A
:1005C0000F2EF5E0AF2EF02DAC0E0F2EF4EC8F2E8B
:1005D000F0E09F2EF02DCC24C394E090DB00F0904F
:1005E000DC000091DD001091DE002091DF003091F1
:1005F000E0004091E1005091E2006091E3007091D1
:10060000E4008091E5000E94150760E070E088E456
:1006100092E40E94D909CF5FC43008F4BDCF209185
:10062000D5003091D60003EF10E04091EB005091DF
:10063000EC006091ED007091EE008091EF009091E0
:10064000F0000E943E0114C02091D5003091D600E8
:1006500003EF10E04091EB005091EC006091ED0051
:100660007091EE008091EF009091F0000E943E01A9
:100670008091F3008B3041F78091D7008F5F80939A
:10068000D700823008F411CF823008F44CC0E090DB
:10069000DB00F090DC000091DD001091DE00209185
:1006A000DF003091E0004091E1005091E200609164
:1006B000E3007091E4008091E5000E945D070F2E39
:1006C000F6EC8F2EF0E09F2EF02D0F2EF3E0AF2EE4
:1006D000F02DC12CE090DB00F090DC000091DD00FB
:1006E0001091DE002091DF003091E0004091E100A8
:1006F0005091E2006091E3007091E4008091E50088
:100700000E94150760E070E08AE794E40E94D9092E
:1007100061E08091D8009091D9000E944F0481E05F
:100720008093DA0041C0E090DB00F090DC000091A3
:10073000DD001091DE002091DF003091E00040915B
:10074000E1005091E2006091E3007091E40080913B
:10075000E5000E945D070F2EFCEC8F2EF0E09F2E2F
:10076000F02D0F2EF3E0AF2EF02DC12CE090DB002A
:10077000F090DC000091DD001091DE002091DF00A0
:100780003091E0004091E1005091E2006091E3007F
:100790007091E4008091E5000E94150760E070E030
:1007A0008AE794E40E94D909CF911F910F91FF909D
:1007B000EF90CF90AF909F908F9008951F920F92DF
:1007C0000FB60F9211248F939F939091E60081E0D2
:1007D000911180E08093E6009F918F910F900FBE62
:1007E0000F901F90189540E0692F0E94830708958D
:1007F000EF92FF920F931F93CF93DF9300D01F923E
:10080000CDB7DEB78B0119821B821A82F92EE82E32
:10081000AE014F5F5F4F692F0E947108898181305F
:1008200061F527C060E070E088E492E40E94D90995
:100830008A819B81C2969B838A83AE014F5F5F4F03
:100840006F2D8E2D0E9471088981811109C08A81C6
:100850009B818C3D954020F48AE0F801808309C09B
:100860008A819B818C3D954020F08BE0F80180834C
:1008700007C089818130B1F203C08CE0F801808328
:100880000F900F900F90DF91CF911F910F91FF90DC
:10089000EF90089540E0692F0E9483070895462F46
:1008A000692F0E94FA0708951F93CF93DF9300D01A
:1008B00000D000D0CDB7DEB749835A836B837C83E9
:1008C0008D839E8310E007C06C81610F40E08E81B4
:1008D0000E9483071F5F8A811817B0F310E007C0DA
:1008E0006B81610F41E08D810E9483071F5F8981C9
:1008F0001817B0F326960FB6F894DEBF0FBECDBF23
:10090000DF91CF911F910895BF92CF92DF92EF9226
:10091000FF920F931F93CF93DF93CDB7DEB7279747
:100920000FB6F894DEBF0FBECDBF4A835B836C83E6
:100930007D838E839F8379018CE0F901808300E0C1
:1009400032C0DC80D00EBE8041E06D2D8B2D0E9428
:10095000FA0710E019C06D81610FAE014F5F5F4F64
:100960008F810E9471088981813039F41C9D000DAE
:1009700011240F5FF701008319C060E070E080E28E
:1009800091E40E94D9091F5F8B81181720F340E082
:100990006D2D8B2D0E94FA0760E070E080E291E4FB
:1009A0000E94D9090F5FCA800C1558F227960FB61E
:1009B000F894DEBF0FBECDBFDF91CF911F910F9195
:1009C000FF90EF90DF90CF90BF900895CF92DF928D
:1009D000EF92FF920F931F93CF93DF93CDB7DEB7C4
:1009E0002C970FB6F894DEBF0FBECDBF8E2DFB82C5
:1009F0000C83612F2E833F834887198240E00E9439
:100A0000FA0740E06E818B810E94FA0760E070E097
:100A100080E89FE30E94D9090F811C8141E0602F8B
:100A2000812F0E94FA0760E070E080E89FE30E9457
:100A3000D909F884BE016F5F7F4F8F2D0E94AB08EC
:100A400069816F708C2D807F682B69838F2D0E9448
:100A5000C90860E070E080E89FE30E94D90940E0A7
:100A6000602F812F0E94FA0760E070E080E89FE32A
:100A70000E94D90941E0602F812F0E94FA07BE0130
:100A80006F5F7F4F8F2D0E94AB0880E1C89E600191
:100A9000112469816F706C2969838F2D0E94C908A8
:100AA00060E070E080E89FE30E94D90940E0602F99
:100AB000812F0E94FA0760E070E080E89FE30E94C7
:100AC000D9092C960FB6F894DEBF0FBECDBFDF91CB
:100AD000CF911F910F91FF90EF90DF90CF900895ED
:100AE000CF92EF92FF920F931F93CF93DF93CDB7E7
:100AF000DEB72B970FB6F894DEBF0FBECDBFE982ED
:100B0000FA820B831C832D833E834F83588769872A
:100B10007A878B8741E0632F802F0E94830741E013
:100B20006C8189810E94830741E06D818A810E94E6
:100B300083071F8141E06885812F0E94830741E080
:100B40006985812F0E94830741E06A85812F0E9479
:100B5000830741E06B85812F0E9483076894CC2432
:100B6000C1F8E980FA800B811C812D813E814F8183
:100B7000588569857A858B850E94E6040F2EF8E2F8
:100B8000CF2EF02DE980FA800B811C812D813E81D2
:100B90004F81588569857A858B850E94E6040F2EE2
:100BA000FCE0CF2EF02DE980FA800B811C812D8195
:100BB0003E814F81588569857A858B850E94E60440
:100BC000CC24C394E980FA800B811C812D813E8165
:100BD0004F81588569857A858B850E94E6042B961E
:100BE0000FB6F894DEBF0FBECDBFDF91CF911F913E
:100BF0000F91FF90EF90CF900895CF92DF92EF92F8
:100C0000FF920F931F93CF93DF93CDB7DEB72C974F
:100C10000FB6F894DEBF0FBECDBF8E2DFB820C83C6
:100C2000612F2E833F834887198241E00E94FA0793
:100C300040E06E818B810E94FA0760E070E080E8FE
:100C40009FE30E94D9090F811C8141E0602F812F11
:100C50000E94FA0760E070E080E89FE30E94D909F3
:100C6000F884BE016F5F7F4F8F2D0E94AB086981B2
:100C70006F708C2D807F682B69838F2D0E94C9082F
:100C800060E070E080E89FE30E94D90940E0602FB7
:100C9000812F0E94FA0760E070E080E89FE30E94E5
:100CA000D90941E0602F812F0E94FA07BE016F5FD2
:100CB0007F4F8F2D0E94AB0880E1C89E60011124F8
:100CC00069816F706C2969838F2D0E94C90860E06B
:100CD00070E080E89FE30E94D90940E0602F812FF7
:100CE0000E94FA0760E070E080E89FE30E94D90963
:100CF0002C960FB6F894DEBF0FBECDBFDF91CF911B
:100D00001F910F91FF90EF90DF90CF900895AF92D9
:100D1000BF92CF92DF92EF92FF920F931F93CF93E8
:100D2000DF93CDB7DEB72B970FB6F894DEBF0FBEBB
:100D3000CDBFE982FA820B831C832D833E834F83D0
:100D4000588769877A878B875601D12C0EC0E98036
:100D5000FA800B811C812D813E814F8158856985E8
:100D60007A858B850E94FD05D394F501ED0DF11D6B
:100D7000C080C110ECCF2B960FB6F894DEBF0FBE2B
:100D8000CDBFDF91CF911F910F91FF90EF90DF903A
:100D9000CF90BF90AF900895AF92CF92EF92FF9215
:100DA0000F931F93CF93DF93CDB7DEB72B970FB67B
:100DB000F894DEBF0FBECDBFE982FA820B831C839D
:100DC0002D833E834F83588769877A878B879C2D35
:100DD0008A2D913039F058F0923031F0933031F063
:100DE00080E005C0805C03C0805F01C0805B8068DC
:100DF000C82EE980FA800B811C812D813E814F81B4
:100E0000588569857A858B850E94E6042B960FB6F6
:100E1000F894DEBF0FBECDBFDF91CF911F910F9130
:100E2000FF90EF90CF90AF9008955F926F927F9276
:100E30008F929F92AF92BF92CF92DF92EF92FF92EA
:100E40000F931F93CF93DF93CDB7DEB72B970FB6DA
:100E5000F894DEBF0FBECDBFE982FA820B831C83FC
:100E60002D833E834F83588769877A878B870E94BB
:100E7000CC066401E980FA800B811C812D813E81C2
:100E80004F81588569857A858B850E9487062B96C8
:100E90000FB6F894DEBF0FBECDBFDF91CF911F918B
:100EA0000F91FF90EF90DF90CF90BF90AF909F9009
:100EB0008F907F906F905F900895CF92EF92FF9206
:100EC0000F931F93CF93DF93CDB7DEB72B970FB65A
:100ED000F894DEBF0FBECDBFCC24C3940E94E604BD
:100EE0002B960FB6F894DEBF0FBECDBFDF91CF912A
:100EF0001F910F91FF90EF90CF9008950E944900AD
:100F00000E949F01FDCF813011F130F08230D1F18C
:100F1000833009F452C06CC041110DC02AB381E086
:100F200090E002C0880F991F6A95E2F780958223AE
:100F30008ABB81E008952AB381E090E002C0880F67
:100F4000991F6A95E2F7822B8ABB81E008954111CF
:100F50000DC027B381E090E002C0880F991F6A9509
:100F6000E2F78095822387BB81E0089527B381E073
:100F700090E002C0880F991F6A95E2F7822B87BB29
:100F800081E0089541110DC024B381E090E002C0DA
:100F9000880F991F6A95E2F78095822384BB81E0D0
:100FA000089524B381E090E002C0880F991F6A95EC
:100FB000E2F7822B84BB81E0089541110DC021B37B
:100FC00081E090E002C0880F991F6A95E2F7809552
:100FD000822381BB81E0089521B381E090E002C0CB
:100FE000880F991F6A95E2F7822B81BB81E00895F3
:100FF00080E00895813011F130F08230D1F18330FA
:1010000009F452C06CC041110DC02BB381E090E0D7
:1010100002C0880F991F6A95E2F7809582238BBBE7
:1010200081E008952BB381E090E002C0880F991F02
:101030006A95E2F7822B8BBB81E0089541110DC0C8
:1010400028B381E090E002C0880F991F6A95E2F70B
:101050008095822388BB81E0089528B381E090E0E9
:1010600002C0880F991F6A95E2F7822B88BB81E046
:10107000089541110DC025B381E090E002C0880FB2
:10108000991F6A95E2F78095822385BB81E00895D8
:1010900025B381E090E002C0880F991F6A95E2F7BE
:1010A000822B85BB81E0089541110DC022B381E000
:1010B00090E002C0880F991F6A95E2F7809582231D
:1010C00082BB81E0089522B381E090E002C0880FE6
:1010D000991F6A95E2F7822B82BB81E0089580E038
:1010E0000895813091F028F08230D9F0833029F1D1
:1010F00030C089B390E002C0959587956A95E2F774
:101100008170FA01808381E0089586B390E002C087
:10111000959587956A95E2F78170FA01808381E061
:10112000089583B390E002C0959587956A95E2F79C
:101130008170FA01808381E0089580B390E002C05D
:10114000959587956A95E2F78170FA01808381E031
:10115000089580E00895813059F028F0823069F0D8
:10116000833081F014C089B3FB01808381E008954E
:1011700086B3FB01808381E0089583B3FB01808304
:1011800081E0089580B3FB01808381E0089580E0D1
:101190000895813049F028F0823049F0833051F0D1
:1011A0000CC06BBB81E0089568BB81E0089565BB0E
:1011B00081E0089562BB81E0089580E00895CF92B8
:1011C000DF92EF92FF92CF93DF936B017C01EA01F4
:1011D0002CEE31E143E853E40E94FF0B18160CF4A7
:1011E00053C028EB3EE145E85EE3C701B6010E942B
:1011F000FF0B18162CF081E090E09983888345C09E
:1012000023E333E343E050E4C701B6010E94FF0B40
:10121000181634F088E090E09983888381E035C027
:101220002DE33AE043E851E4C701B6010E94FF0B09
:10123000181634F080E490E09983888381E025C01B
:101240002BE734E143E852E4C701B6010E94FF0BEB
:10125000181634F080E091E09983888381E015C00E
:101260002CEE31E143E853E4C701B6010E94FF0BC5
:10127000181634F080E094E09983888381E005C0FB
:101280001982188281E001C080E0DF91CF91FF9048
:10129000EF90DF90CF900895CF93DF93EB018034F0
:1012A000910581F130F48130910561F00897D1F01A
:1012B00059C0811561E09607A9F18115944009F4A0
:1012C00041C050C068EB7EE185E89EE30E94920B2E
:1012D0002FE632E143E85AE30E94040C0E94760CA8
:1012E000688341C063E373E383E090E40E94920B60
:1012F0002FE632E143E05CE30E94040C0E94760C8E
:10130000688331C06DE37AE083E891E40E94920B38
:101310002FE632E143E85DE30E94040C0E94760C64
:10132000688321C06BE774E183E892E40E94920B2A
:101330002FE632E143E85EE30E94040C0E94760C43
:10134000688311C06CEE71E183E893E40E94920B14
:101350002FE632E143E85FE30E94040C0E94760C22
:10136000688301C01882DF91CF9108958034910580
:10137000A9F030F48130910559F0089761F017C059
:10138000811521E0920769F08115944069F00FC042
:1013900081E883BF089582E883BF089583E883BF0F
:1013A000089584E883BF089585E883BF089513BE38
:1013B00008958F929F92AF92BF92CF92DF92EF9259
:1013C000FF921F93CF93DF93CDB7DEB727970FB66A
:1013D000F894DEBF0FBECDBF6B017C01AE014F5F45
:1013E0005F4F0E94DF08882371F0A7019601BE01BC
:1013F0006D5F7F4F89819A810E944C091C821D82FA
:101400001E821F8211C080E094E09A8389832CEEB3
:1014100031E143E853E4C701B6010E94040C6C8338
:101420007D838E839F831B82CC80DD80EE80FF8056
:10143000C701B6010E94760C162F70E080E090E0A4
:101440000E94A70C9B01AC01C701B6010E94920B40
:101450002CEE31E143E853E40E94570D0E94760CD4
:10146000F62E8B8182BF111108C089819A810E945A
:10147000B60908B600FEFDCF00C185E883BF07C0EE
:1014800008B600FEFDCF115088B7816088BF1111EA
:10149000F7CFFF2009F453C06F2D70E080E090E09B
:1014A0000E94A70C4B015C0128EB3EE145E85EE39E
:1014B0000E94FF0B18162CF081E090E09A8389833C
:1014C0003EC023E333E343E050E4C501B4010E948E
:1014D000FF0B18162CF088E090E09A8389832FC0C8
:1014E0002DE33AE043E851E4C501B4010E94FF0B4B
:1014F00018162CF080E490E09A83898320C02BE7B3
:1015000034E143E852E4C501B4010E94FF0B181610
:101510002CF080E091E09A83898311C02CEE31E1B8
:1015200043E853E4C501B4010E94FF0B18162CF0E8
:1015300080E094E09A83898302C01A8219828981AB
:101540009A818034910509F445C030F481309105C9
:1015500069F0089729F18CC0811521E0920709F400
:1015600053C08115944009F469C082C06F2D70E0AA
:1015700080E090E00E94A70C9B01AC0168EB7EE14B
:1015800085E89EE30E94920B2FE632E143E85AE39E
:101590000E94040C0E94760C62BF81E883BF6AC07F
:1015A0006F2D70E080E090E00E94A70C9B01AC01E1
:1015B00063E373E383E090E40E94920B2FE632E151
:1015C00043E05CE30E94040C0E94760C62BF82E858
:1015D00083BF50C06F2D70E080E090E00E94A70CA8
:1015E0009B01AC016DE37AE083E891E40E94920BE9
:1015F0002FE632E143E85DE30E94040C0E94760C82
:1016000062BF83E883BF36C06F2D70E080E090E05A
:101610000E94A70C9B01AC016BE774E183E892E4A4
:101620000E94920B2FE632E143E85EE30E94040C35
:101630000E94760C62BF84E883BF1CC06F2D70E0EF
:1016400080E090E00E94A70C9B01AC016CEE71E180
:1016500083E893E40E94920B2FE632E143E85FE3D4
:101660000E94040C0E94760C62BF85E883BF02C012
:1016700012BE13BE08B600FEFDCF88B7816088BFDA
:1016800013BE27960FB6F894DEBF0FBECDBFDF9115
:10169000CF911F91FF90EF90DF90CF90BF90AF90D0
:1016A0009F908F9008951F920F920FB60F92112462
:1016B0002F933F934F935F936F937F938F939F935A
:1016C000AF93BF93EF93FF93E091D300F091D400D9
:1016D0003097B9F08091D200882379F08091D100C1
:1016E0008F5F8093D1009091D1008091D2009813A8
:1016F00008C009951092D10004C009958091D000CE
:1017000082BFFF91EF91BF91AF919F918F917F9198
:101710006F915F914F913F912F910F900FBE0F905E
:101720001F9018955058BB27AA270E94AA0B0C940B
:101730001D0D0E940F0D38F00E94160D20F039F497
:101740009F3F19F426F40C940C0D0EF4E095E7FB82
:101750000C94060DE92F0E942E0D58F3BA1762075C
:1017600073078407950720F079F4A6F50C94500DC3
:101770000EF4E0950B2EBA2FA02D0B01B9019001AC
:101780000C01CA01A0011124FF27591B99F0593FF0
:1017900050F4503E68F11A16F040A22F232F342F38
:1017A0004427585FF3CF469537952795A795F04086
:1017B0005395C9F77EF41F16BA0B620B730B840B9B
:1017C000BAF09150A1F0FF0FBB1F661F771F881F53
:1017D000C2F70EC0BA0F621F731F841F48F48795AB
:1017E00077956795B795F7959E3F08F0B0CF93959D
:1017F000880F08F09927EE0F9795879508950E9416
:10180000E20C08F481E008950E94180C0C941D0D60
:101810000E94160D58F00E940F0D40F029F45F3F12
:1018200029F00C94060D51110C94510D0C940C0DD3
:101830000E942E0D68F39923B1F3552391F3951B64
:10184000550BBB27AA2762177307840738F09F5FE1
:101850005F4F220F331F441FAA1FA9F335D00E2E4E
:101860003AF0E0E832D091505040E695001CCAF7BB
:101870002BD0FE2F29D0660F771F881FBB1F26177E
:1018800037074807AB07B0E809F0BB0B802DBF0155
:10189000FF2793585F4F3AF09E3F510578F00C9424
:1018A000060D0C94510D5F3FE4F3983ED4F38695FA
:1018B00077956795B795F7959F5FC9F7880F911D45
:1018C0009695879597F90895E1E0660F771F881F31
:1018D000BB1F621773078407BA0720F0621B730BE4
:1018E000840BBA0BEE1F88F7E09508950E94360D21
:1018F00088F09F5798F0B92F9927B751B0F0E1F0D1
:10190000660F771F881F991F1AF0BA95C9F714C080
:10191000B13091F00E94500DB1E008950C94500D3B
:10192000672F782F8827B85F39F0B93FCCF38695B9
:1019300077956795B395D9F73EF490958095709516
:1019400061957F4F8F4F9F4F0895E89409C097FB93
:101950003EF490958095709561957F4F8F4F9F4F86
:101960009923A9F0F92F96E9BB279395F6958795CA
:1019700077956795B795F111F8CFFAF4BB0F11F48D
:1019800060FF1BC06F5F7F4F8F4F9F4F16C0882334
:1019900011F096E911C0772321F09EE8872F762F6A
:1019A00005C0662371F096E8862F70E060E02AF0AB
:1019B0009A95660F771F881FDAF7880F9695879597
:1019C00097F90895990F0008550FAA0BE0E8FEEF6C
:1019D00016161706E807F907C0F012161306E407F3
:1019E000F50798F0621B730B840B950B39F40A26EC
:1019F00061F0232B242B252B21F408950A2609F4CA
:101A0000A140A6958FEF811D811D089597F99F67CD
:101A100080E870E060E008959FEF80EC0895002476
:101A20000A941616170618060906089500240A9443
:101A300012161306140605060895092E0394000CC9
:101A400011F4882352F0BB0F40F4BF2B11F460FF58
:101A500004C06F5F7F4F8F4F9F4F089557FD905881
:101A6000440F551F59F05F3F71F04795880F97FB62
:101A7000991F61F09F3F79F087950895121613061C
:101A80001406551FF2CF4695F1DF08C0161617064B
:101A90001806991FF1CF8695710561050894089580
:101AA000E894BB2766277727CB0197F908950E9412
:101AB0006A0D0C941D0D0E940F0D38F00E94160D3A
:101AC00020F0952311F00C94060D0C940C0D1124AC
:101AD0000C94510D0E942E0D70F3959FC1F3950F3C
:101AE00050E0551F629FF001729FBB27F00DB11DA2
:101AF000639FAA27F00DB11DAA1F649F6627B00D32
:101B0000A11D661F829F2227B00DA11D621F739F1A
:101B1000B00DA11D621F839FA00D611D221F749F28
:101B20003327A00D611D231F849F600D211D822F6F
:101B3000762F6A2F11249F5750409AF0F1F0882396
:101B40004AF0EE0FFF1FBB1F661F771F881F9150C3
:101B50005040A9F79E3F510580F00C94060D0C945F
:101B6000510D5F3FE4F3983ED4F3869577956795E2
:101B7000B795F795E7959F5FC1F7FE2B880F911DED
:0C1B80009695879597F90895F894FFCF8B
:101B8C0057454C434F4D4500496E73657274206147
:101B9C002043617264004F555420464F52204D45EE
:101BAC004E54454E414E43450043415244204465FA
:101BBC007465637465640052454144494E47202E58
:101BCC002E2E00494E56414C49442050494E2C5221
:101BDC006574727900454E54455220594F55522028
:101BEC0050494E0058004552524F52004F4B000086
:00000001FF
