S00D000041544D5F322E73726563A4
S11300000C9448000C9465000C9465000C94DA0779
S11300100C9465000C9465000C9465000C946500C8
S11300200C9465000C9465000C9465000C948E0F80
S11300300C9465000C9465000C9465000C946500A8
S11300400C9465000C9465000C9465000C94650098
S11300500C9465004E414E494E495459494E46CD83
S1130060CCCC3D0AD7233C17B7D13877CC2B32956B
S113007095E6241FB14F0A000020410000C8420049
S1130080401C4620BCBE4CCA1B0E5AAEC59D740013
S113009011241FBECFE5D8E0DEBFCDBF11E0A0E63E
S11300A0B0E0EAECF7E202C005900D92AE36B1077B
S11300B0D9F721E0AEE6B1E001C01D92AF3AB20734
S11300C0E1F70E94960B0C94E3130C940000DF926A
S11300D0EF92FF920F931F93CF93DF930F2EF5E0D0
S11300E0DF2EF02DD0929E0110929D011092780186
S11300F0E9E7F1E0C2E00C2FC283D3E03D2FD583C2
S1130100EC2EC08381E0182F8383FC2EC1832C2F17
S1130110C4834C2FC68384E0582F87836D2DD086EB
S113012086E0782F818787E082870E948809E4EA45
S1130130F1E0148215824D2FD0835D2FD1836C2F73
S1130140C2837D2DD38280E090E00E945008E6E7D0
S1130150F1E0D083D18380917601909177010E9460
S11301604608E3E7F1E0D083C18380917301909165
S113017074010E94EF0740E062E081E00E949B0B63
S11301800E94F70C84B7806484BF8BB780628BBFF6
S11301908FB782608FBF7894DF91CF911F910F91B9
S11301A0FF90EF90DF9008958F929F92AF92CF923D
S11301B0DF92EF92FF920F931F93E0907901F090FA
S11301C07A0100917B0110917C0120917D01309195
S11301D07E0140917F015091800160918101709175
S11301E08201809183010E94750B0F2EF0E68F2E01
S11301F0F0E09F2EF02D0F2EF5E0AF2EF02DC12C48
S1130200E0907901F0907A0100917B0110917C01DA
S113021020917D0130917E0140917F0150918001B8
S11302206091810170918201809183010E942D0B64
S113023060E070E08AE794E40E94140EE090790193
S1130240F0907A0100917B0110917C0120917D0155
S113025030917E0140917F01509180016091810134
S113026070918201809183010E94750B0F2EF8E634
S1130270CF2EF0E0DF2EF02DE0907901F0907A019E
S113028000917B0110917C0120917D0130917E01D0
S113029040917F01509180016091810170918201B0
S11302A0809183010E949F0A1F910F91FF90EF900C
S11302B0DF90CF90AF909F908F900895EF92FF9230
S11302C00F931F93CF93DF93CDB7DEB728970FB665
S11302D0F894DEBF0FBECDBF4B835C836D837E83FA
S11302E08F83988779019E012F5F3F4F0E948B086F
S11302F060E070E088E492E40E94140EBE016E5F38
S11303007F4FC7010E94F40760E070E080EA91E447
S11303100E94140E1DC09E012F5F3F4F4B815C81D4
S11303206D817E818F8198850E948B0860E070E0EA
S113033088E492E40E94140EBE016E5F7F4FC701F1
S11303400E94F40760E070E080E291E40E94140EE1
S113035089818C3019F49A819C30E9F28C3019F03F
S1130360F80180830AC08A818C3039F08A3011F414
S113037080E001C08BE0F801808328960FB6F894E2
S1130380DEBF0FBECDBFDF91CF911F910F91FF90C4
S1130390EF9008956F927F928F929F92AF92CF9237
S11303A0DF92EF92FF920F931F93CF93DF9300D0CE
S11303B000D0CDB7DEB73C01E0907901F0907A012E
S11303C000917B0110917C0120917D0130917E018F
S11303D040917F015091800160918101709182016F
S11303E0809183010E94750B0F2EF6E78F2EF0E0AB
S11303F09F2EF02DA12CC12CE0907901F0907A0170
S113040000917B0110917C0120917D0130917E014E
S113041040917F015091800160918101709182012E
S1130420809183010E942D0BD12C3EC001E010E08D
S11304300C0F1D1F0D0D111D2091730130917401BE
S11304404091A4015091A5016091A6017091A7016A
S11304508091A8019091A9010E945E010F2EF5E000
S1130460AF2EF02DAD0C0F2EF5E88F2EF0E09F2E61
S1130470F02DCC24C394E0907901F0907A0100919E
S11304807B0110917C0120917D0130917E0140918E
S11304907F0150918001609181017091820180916E
S11304A083010E942D0BD39483E08D1508F0BECFF9
S11304B020917301309174010BEA11E04091A40181
S11304C05091A5016091A6017091A7018091A801A6
S11304D09091A9010E945E0114C020917301309192
S11304E074010BEA11E04091A4015091A5016091BF
S11304F0A6017091A7018091A8019091A9010E9481
S11305005E018091AB018B3041F7CE010196F3017E
S1130510918380830F900F900F900F90DF91CF9174
S11305201F910F91FF90EF90DF90CF90AF909F902D
S11305308F907F906F900895CF92DF92EF92FF9209
S11305400F931F93CF93DF93EC017A0144960E949B
S11305500812892B31F5CC2EDD2E00E010E01CC0F2
S113056089E1809FE001819FD00D1124CE0DDF1D14
S1130570BE016B5F7F4F8C2D9D2D0E940812892B2D
S113058049F489E1FE01D70101900D928A95E1F7C2
S113059083E008C00F5F1F4F0F3F11050CF382E08B
S11305A001C080E0DF91CF911F910F91FF90EF90F8
S11305B0DF90CF900895CF92DF92EF92FF920F9346
S11305C01F93CF93DF93CDB7DEB768970FB6F89438
S11305D0DEBF0FBECDBF6C01FE01319684E1DF01A9
S11305E01D928A95E9F71D8A1E8A1F8A188E00E0DB
S11305F004C08AEA0E94110D082F0023D1F310E0F1
S113060012C0E12EF12C0E94160DE1E0F0E0EC0F97
S1130610FD1FEE0DFF1D808360E070E080E291E439
S11306200E94140E1F5F101760F3E1E0F0E0EC0F7E
S1130630FD1FE10FF11D108210E00AC08FEF0E9430
S1130640110D182F60E070E080E291E40E94140E16
S11306501B3BA1F710E012C0E12EF12C0E94160DF5
S1130660E5E1F0E0EC0FFD1FEE0DFF1D808360E07F
S113067070E080E291E40E94140E1F5F143060F376
S1130680E5E1F0E0EC0FFD1FE10FF11D1082F60132
S11306908081402F50E0BE016F5F7F4F90E00E9449
S11306A01112D60154968C9144E050E0BE016B5E69
S11306B07F4F90E00E94111268960FB6F894DEBF47
S11306C00FBECDBFDF91CF911F910F91FF90EF909F
S11306D0DF90CF9008956F927F928F929F92AF9206
S11306E0CF92DF92EF92FF920F931F93CF93DF93FA
S11306F0CDB7DEB729970FB6F894DEBF0FBECDBFD6
S11307003C0188E0E4E9F0E0DE01119601900D92ED
S11307108A95E1F7E0907901F0907A0100917B01EC
S113072010917C0120917D0130917E0140917F01E7
S113073050918001609181017091820180918301C7
S11307400E94750B0F2EF7E88F2EF0E09F2EF02DF0
S11307500F2EF3E0AF2EF02DC12CE0907901F09034
S11307607A0100917B0110917C0120917D013091EF
S11307707E0140917F0150918001609181017091CF
S11307808201809183010E942D0BCE0101964C01C0
S1130790CC24C394E0907901F0907A0100917B011C
S11307A010917C0120917D0130917E0140917F0167
S11307B05091800160918101709182018091830147
S11307C00E942D0BD12C45C094E0D91201C0D394C2
S11307D020917301309174018E01075F1F4F409186
S11307E0A4015091A5016091A6017091A701809187
S11307F0A8019091A9010E945E01E1E0F0E0EC0FF4
S1130800FD1FED0DF11D8985805D80830F2EF3E0C2
S1130810AF2EF02DAD0CFE0131964F01CC24C394C4
S1130820E0907901F0907A0100917B0110917C01B4
S113083020917D0130917E0140917F015091800192
S11308406091810170918201809183010E942D0B3E
S1130850D394F6E0FD1508F0B7CFCE0101960E94BF
S11308600412F301608371838283938329960FB604
S1130870F894DEBF0FBECDBFDF91CF911F910F91D2
S1130880FF90EF90DF90CF90AF909F908F907F90EC
S11308906F9008958F929F92AF92BF92CF92DF9202
S11308A0EF92FF920F931F93CF93DF93CDB7DEB7F1
S11308B0A0970FB6F894DEBF0FBECDBF809178012C
S11308C08130E1F5E0907901F0907A0100917B01AB
S11308D010917C0120917D0130917E0140917F0136
S11308E05091800160918101709182018091830116
S11308F00E94750B0F2EFCE98F2EF0E09F2EF02D39
S11309000F2EF3E0AF2EF02DC12CE0907901F09082
S11309107A0100917B0110917C0120917D0130913D
S11309207E0140917F01509180016091810170911D
S11309308201809183010E942D0B29C380919E0125
S1130940853031F40E94D40084E080939E011FC35B
S113095080919D01813009F01AC3E0907901F090F3
S11309607A0100917B0110917C0120917D013091ED
S11309707E0140917F0150918001609181017091CD
S11309808201809183010E94750B0F2EFFEA8F2E46
S1130990F0E09F2EF02D0F2EF3E0AF2EF02DC12CA2
S11309A0E0907901F0907A0100917B0110917C0133
S11309B020917D0130917E0140917F015091800111
S11309C06091810170918201809183010E942D0BBD
S11309D00F2EFDEB8F2EF0E09F2EF02DA12CCC24BA
S11309E0C394E0907901F0907A0100917B01109119
S11309F07C0120917D0130917E0140917F015091D5
S1130A0080016091810170918201809183010E9433
S1130A102D0BCE0105960E94DB02E0907901F09047
S1130A207A0100917B0110917C0120917D0130912C
S1130A307E0140917F01509180016091810170910C
S1130A408201809183010E94750B0F2EF9EC8F2E89
S1130A50F0E09F2EF02D0F2EF3E0AF2EF02DC12CE1
S1130A60E0907901F0907A0100917B0110917C0172
S1130A7020917D0130917E0140917F015091800150
S1130A806091810170918201809183010E942D0BFC
S1130A9060E070E08AE794E40E94140E10927501FD
S1130AA081E0811142C0809175018823F1F1E090C9
S1130AB07901F0907A0100917B0110917C012091E1
S1130AC07D0130917E0140917F01509180016091C0
S1130AD0810170918201809183010E94750B0F2E18
S1130AE0FFEC8F2EF0E09F2EF02DA12CC12CE09076
S1130AF07901F0907A0100917B0110917C012091A1
S1130B007D0130917E0140917F015091800160917F
S1130B10810170918201809183010E942D0B60E01C
S1130B2070E08AEF94E40E94140ECE0101960E94B4
S1130B30CA0144E851E0BE016F5F7F4FCE010596C4
S1130B400E949C02909175019F5F90937501923071
S1130B5018F4882309F4A5CF923008F46DC0E0900E
S1130B607901F0907A0100917B0110917C01209130
S1130B707D0130917E0140917F015091800160910F
S1130B80810170918201809183010E94750B0F2E67
S1130B90FBED8F2EF0E09F2EF02D0F2EF3E0AF2E05
S1130BA0F02DC12CE0907901F0907A0100917B0145
S1130BB010917C0120917D0130917E0140917F0153
S1130BC05091800160918101709182018091830133
S1130BD00E942D0B0F2EF7EE8F2EF0E09F2EF02D9E
S1130BE0A12CCC24C394E0907901F0907A01009177
S1130BF07B0110917C0120917D0130917E01409117
S1130C007F015091800160918101709182018091F6
S1130C1083010E942D0B60E070E08AE794E40E9457
S1130C20140E61E080917601909177010E944B0847
S1130C3081E080937801ABC1823009F043C0E09039
S1130C407901F0907A0100917B0110917C0120914F
S1130C507D0130917E0140917F015091800160912E
S1130C60810170918201809183010E94750B0F2E86
S1130C70F5EF8F2EF0E09F2EF02DA12CC12CE090EB
S1130C807901F0907A0100917B0110917C0120910F
S1130C907D0130917E0140917F01509180016091EE
S1130CA0810170918201809183010E942D0B61E08A
S1130CB080917601909177010E944B0881E08093A6
S1130CC0780165C180918801811143C0E090790168
S1130CD0F0907A0100917B0110917C0120917D01BB
S1130CE030917E0140917F0150918001609181019A
S1130CF070918201809183010E94750B0F2EFAE09E
S1130D008F2EF1E09F2EF02DA12CC12CE0907901C3
S1130D10F0907A0100917B0110917C0120917D017A
S1130D2030917E0140917F01509180016091810159
S1130D3070918201809183010E942D0B61E080916A
S1130D407601909177010E944B0881E080937801AD
S1130D501EC1CE014D960E946B0380908401909039
S1130D608501A0908601B0908701CD8CDE8CEF8C3C
S1130D70F8A0A7019601C501B4010E9492111816AA
S1130D80CCF5E0907901F0907A0100917B0110910B
S1130D907C0120917D0130917E0140917F01509131
S1130DA080016091810170918201809183010E9490
S1130DB0750B0F2EFEE18F2EF1E09F2EF02DA12C4E
S1130DC0C12CE0907901F0907A0100917B0110919F
S1130DD07C0120917D0130917E0140917F015091F1
S1130DE080016091810170918201809183010E9450
S1130DF02D0BCDC020E030E44CE955E4C701B60129
S1130E000E9492111816CCF5E0907901F0907A01C5
S1130E1000917B0110917C0120917D0130917E0134
S1130E2040917F0150918001609181017091820114
S1130E30809183010E94750B0F2EF0E38F2EF1E059
S1130E409F2EF02DA12CC12CE0907901F0907A0115
S1130E5000917B0110917C0120917D0130917E01F4
S1130E6040917F01509180016091810170918201D4
S1130E70809183010E942D0B8AC0A7019601C501B0
S1130E80B4010E94CD0F6093840170938501809317
S1130E90860190938701E0907901F0907A010091A6
S1130EA07B0110917C0120917D0130917E01409164
S1130EB07F01509180016091810170918201809144
S1130EC083010E94750B0F2EFAE48F2EF1E09F2E02
S1130ED0F02DA12CC12CE0907901F0907A010091C1
S1130EE07B0110917C0120917D0130917E01409124
S1130EF07F01509180016091810170918201809104
S1130F0083010E942D0B60E070E08AE794E40E9464
S1130F10140EE0907901F0907A0100917B01109118
S1130F207C0120917D0130917E0140917F0150919F
S1130F3080016091810170918201809183010E94FE
S1130F40750B0F2EFFE58F2EF1E09F2EF02DE09014
S1130F507901F0907A0100917B0110917C0120913C
S1130F607D0130917E0140917F015091800160911B
S1130F70810170918201809183010E942D0B60E0B8
S1130F8070E08AE794E40E94140E10929D01A096EA
S1130F900FB6F894DEBF0FBECDBFDF91CF911F9186
S1130FA00F91FF90EF90DF90CF90BF90AF909F9004
S1130FB08F9008951F920F920FB60F9211248F9362
S1130FC09F9390919D0181E0911180E080939D0118
S1130FD09F918F910F900FBE0F901F90189540E036
S1130FE0692F0E949B0B0895EF92FF920F931F931A
S1130FF0CF93DF9300D01F92CDB7DEB78B01198258
S11310001B821A82F92EE82EAE014F5F5F4F692FC3
S11310100E94890C8981813061F527C060E070E00D
S113102088E492E40E94140E8A819B81C2969B8379
S11310308A83AE014F5F5F4F6F2D8E2D0E94890C06
S11310408981811109C08A819B818C3D954020F45E
S11310508AE0F801808309C08A819B818C3D954098
S113106020F08BE0F801808307C089818130B1F2E0
S113107003C08CE0F80180830F900F900F90DF91F4
S1131080CF911F910F91FF90EF90089540E0692F49
S11310900E949B0B0895462F692F0E94120C0895FD
S11310A0FF920F931F93CF93DF9300D000D000D013
S11310B0CDB7DEB749835A836B837C838D839E834C
S11310C000E00EC01C81100FFE8040E0612F8F2DC8
S11310D00E949B0B41E0612F8F2D0E94120C0F5F29
S11310E08A81081778F310E007C06B81610F41E033
S11310F08D810E949B0B1F5F89811817B0F3269680
S11311000FB6F894DEBF0FBECDBFDF91CF911F9114
S11311100F91FF9008959F92AF92BF92CF92DF926A
S1131120EF92FF920F931F93CF93DF93CDB7DEB768
S113113027970FB6F894DEBF0FBECDBF4A835B83FB
S11311406C837D838E839F8369018CE0F9018083A6
S113115010E007C06C81610F41E08E810E94120C87
S11311601F5FAA801A15B0F3B12C34C0EC80EB0CCD
S11311709E8040E06E2D892D0E94120C00E021C05B
S11311801D81100FFF80AE014F5F5F4F612F8F2DC8
S11311900E94890C8981811113C007C0AE014F5F81
S11311A05F4F612F8F2D0E94890C89818823B1F3B1
S11311B08B2D0A9D800D11248F5FF601808304C05E
S11311C00F5F8B810817E0F241E06E2D892D0E949C
S11311D0120CB394BA1450F227960FB6F894DEBFEB
S11311E00FBECDBFDF91CF911F910F91FF90EF9074
S11311F0DF90CF90BF90AF909F900895CF92DF92F1
S1131200EF92FF920F931F93CF93DF93CDB7DEB787
S11312102C970FB6F894DEBF0FBECDBF8E2DFB8288
S11312200C83612F2E833F834887198240E00E94FC
S1131230120C40E06E818B810E94120C60E070E021
S113124080E89FE30E94140E0F811C8141E0602F0F
S1131250812F0E94120C60E070E080E89FE30E94FE
S1131260140EF884BE016F5F7F4F8F2D0E94C30C54
S113127069816F708C2D807F682B69838F2D0E940C
S1131280E10C60E070E080E89FE30E94140E40E00F
S1131290602F812F0E94120C60E070E080E89FE3D1
S11312A00E94140E41E0602F812F0E94120CBE0197
S11312B06F5F7F4F8F2D0E94C30C80E1C89E600139
S11312C0112469816F706C2969838F2D0E94E10C50
S11312D060E070E080E89FE30E94140E40E0602F1D
S11312E0812F0E94120C60E070E080E89FE30E946E
S11312F0140E2C960FB6F894DEBF0FBECDBFDF914F
S1131300CF911F910F91FF90EF90DF90CF900895B0
S1131310CF92EF92FF920F931F93CF93DF93CDB7AA
S1131320DEB72B970FB6F894DEBF0FBECDBFE982B0
S1131330FA820B831C832D833E834F8358876987EE
S11313407A878B8741E0632F802F0E949B0B41E0BB
S11313506C8189810E949B0B41E06D818A810E948E
S11313609B0B1F8141E06885812F0E949B0B41E00C
S11313706985812F0E949B0B41E06A85812F0E9421
S11313809B0B41E06B85812F0E949B0B6894CC24BE
S1131390C1F8E980FA800B811C812D813E814F8147
S11313A0588569857A858B850E94FE080F2EF8E2A0
S11313B0CF2EF02DE980FA800B811C812D813E8196
S11313C04F81588569857A858B850E94FE080F2E8A
S11313D0FCE0CF2EF02DE980FA800B811C812D8159
S11313E03E814F81588569857A858B850E94FE08E8
S11313F0CC24C394E980FA800B811C812D813E8129
S11314004F81588569857A858B850E94FE082B96C5
S11314100FB6F894DEBF0FBECDBFDF91CF911F9101
S11314200F91FF90EF90CF900895CF92DF92EF92BB
S1131430FF920F931F93CF93DF93CDB7DEB72C9713
S11314400FB6F894DEBF0FBECDBF8E2DFB820C838A
S1131450612F2E833F834887198241E00E94120C3A
S113146040E06E818B810E94120C60E070E080E8A5
S11314709FE30E94140E0F811C8141E0602F812F95
S11314800E94120C60E070E080E89FE30E94140E5A
S1131490F884BE016F5F7F4F8F2D0E94C30C69815A
S11314A06F708C2D807F682B69838F2D0E94E10CD7
S11314B060E070E080E89FE30E94140E40E0602F3B
S11314C0812F0E94120C60E070E080E89FE30E948C
S11314D0140E41E0602F812F0E94120CBE016F5F39
S11314E07F4F8F2D0E94C30C80E1C89E60011124A0
S11314F069816F706C2969838F2D0E94E10C60E013
S113150070E080E89FE30E94140E40E0602F812F7A
S11315100E94120C60E070E080E89FE30E94140EC9
S11315202C960FB6F894DEBF0FBECDBFDF91CF91DE
S11315301F910F91FF90EF90DF90CF900895AF929D
S1131540BF92CF92DF92EF92FF920F931F93CF93AC
S1131550DF93CDB7DEB72B970FB6F894DEBF0FBE7F
S1131560CDBFE982FA820B831C832D833E834F8394
S1131570588769877A878B875601D12C0EC0E980FA
S1131580FA800B811C812D813E814F8158856985AC
S11315907A858B850E94150AD394F501ED0DF11D12
S11315A0C080C110ECCF2B960FB6F894DEBF0FBEEF
S11315B0CDBFDF91CF911F910F91FF90EF90DF90FE
S11315C0CF90BF90AF900895AF92CF92EF92FF92D9
S11315D00F931F93CF93DF93CDB7DEB72B970FB63F
S11315E0F894DEBF0FBECDBFE982FA820B831C8361
S11315F02D833E834F83588769877A878B879C2DF9
S11316008A2D913039F058F0923031F0933031F026
S113161080E005C0805C03C0805F01C0805B80689F
S1131620C82EE980FA800B811C812D813E814F8177
S1131630588569857A858B850E94FE082B960FB69E
S1131640F894DEBF0FBECDBFDF91CF911F910F91F4
S1131650FF90EF90CF90AF9008955F926F927F923A
S11316608F929F92AF92BF92CF92DF92EF92FF92AE
S11316700F931F93CF93DF93CDB7DEB72B970FB69E
S1131680F894DEBF0FBECDBFE982FA820B831C83C0
S11316902D833E834F83588769877A878B870E947F
S11316A0E40A6401E980FA800B811C812D813E816A
S11316B04F81588569857A858B850E949F0A2B9670
S11316C00FB6F894DEBF0FBECDBFDF91CF911F914F
S11316D00F91FF90EF90DF90CF90BF90AF909F90CD
S11316E08F907F906F905F900895CF92EF92FF92CA
S11316F00F931F93CF93DF93CDB7DEB72B970FB61E
S1131700F894DEBF0FBECDBFCC24C3940E94FE0864
S11317102B960FB6F894DEBF0FBECDBFDF91CF91ED
S11317201F910F91FF90EF90CF9008950E94670052
S11317300E944A04FDCF813011F130F08230D1F1A2
S1131740833009F452C06CC041110DC02AB381E04A
S113175090E002C0880F991F6A95E2F78095822372
S11317608ABB81E008952AB381E090E002C0880F2B
S1131770991F6A95E2F7822B8ABB81E00895411193
S11317800DC027B381E090E002C0880F991F6A95CD
S1131790E2F78095822387BB81E0089527B381E037
S11317A090E002C0880F991F6A95E2F7822B87BBED
S11317B081E0089541110DC024B381E090E002C09E
S11317C0880F991F6A95E2F78095822384BB81E094
S11317D0089524B381E090E002C0880F991F6A95B0
S11317E0E2F7822B84BB81E0089541110DC021B33F
S11317F081E090E002C0880F991F6A95E2F7809516
S1131800822381BB81E0089521B381E090E002C08E
S1131810880F991F6A95E2F7822B81BB81E00895B6
S113182080E00895813011F130F08230D1F18330BD
S113183009F452C06CC041110DC02BB381E090E09B
S113184002C0880F991F6A95E2F7809582238BBBAB
S113185081E008952BB381E090E002C0880F991FC6
S11318606A95E2F7822B8BBB81E0089541110DC08C
S113187028B381E090E002C0880F991F6A95E2F7CF
S11318808095822388BB81E0089528B381E090E0AD
S113189002C0880F991F6A95E2F7822B88BB81E00A
S11318A0089541110DC025B381E090E002C0880F76
S11318B0991F6A95E2F78095822385BB81E008959C
S11318C025B381E090E002C0880F991F6A95E2F782
S11318D0822B85BB81E0089541110DC022B381E0C4
S11318E090E002C0880F991F6A95E2F780958223E1
S11318F082BB81E0089522B381E090E002C0880FAA
S1131900991F6A95E2F7822B82BB81E0089580E0FB
S11319100895813091F028F08230D9F0833029F194
S113192030C089B390E002C0959587956A95E2F737
S11319308170FA01808381E0089586B390E002C04B
S1131940959587956A95E2F78170FA01808381E025
S1131950089583B390E002C0959587956A95E2F760
S11319608170FA01808381E0089580B390E002C021
S1131970959587956A95E2F78170FA01808381E0F5
S1131980089580E00895813059F028F0823069F09C
S1131990833081F014C089B3FB01808381E0089512
S11319A086B3FB01808381E0089583B3FB018083C8
S11319B081E0089580B3FB01808381E0089580E095
S11319C00895813049F028F0823049F0833051F095
S11319D00CC06BBB81E0089568BB81E0089565BBD2
S11319E081E0089562BB81E0089580E0089540E0BD
S11319F064E081E00E949B0B40E065E081E00E948E
S1131A009B0B41E066E081E00E949B0B40E067E0B5
S1131A1081E00E949B0B80E48DB98EB18E7F8EB9DC
S1131A2008958FB9779BFECF8FB10895779BFECF32
S1131A308FB10895CF92DF92EF92FF92CF93DF930D
S1131A406B017C01EA012CEE31E143E853E40E948E
S1131A503A1018160CF453C028EB3EE145E85EE357
S1131A60C701B6010E943A1018162CF081E090E0EC
S1131A709983888345C023E333E343E050E4C701FB
S1131A80B6010E943A10181634F088E090E0998369
S1131A90888381E035C02DE33AE043E851E4C7018F
S1131AA0B6010E943A10181634F080E490E099834D
S1131AB0888381E025C02BE734E143E852E4C70181
S1131AC0B6010E943A10181634F080E091E0998330
S1131AD0888381E015C02CEE31E143E853E4C7016B
S1131AE0B6010E943A10181634F080E094E099830D
S1131AF0888381E005C01982188281E001C080E0FA
S1131B00DF91CF91FF90EF90DF90CF900895CF9326
S1131B10DF93EB018034910581F130F4813091053C
S1131B2061F00897D1F059C0811561E09607A9F1D9
S1131B308115944009F441C050C068EB7EE185E80A
S1131B409EE30E94CD0F2FE632E143E85AE30E9460
S1131B503F100E94B110688341C063E373E383E0E4
S1131B6090E40E94CD0F2FE632E143E05CE30E9453
S1131B703F100E94B110688331C06DE37AE083E8BE
S1131B8091E40E94CD0F2FE632E143E85DE30E9429
S1131B903F100E94B110688321C06BE774E183E8B1
S1131BA092E40E94CD0F2FE632E143E85EE30E9407
S1131BB03F100E94B110688311C06CEE71E183E89C
S1131BC093E40E94CD0F2FE632E143E85FE30E94E5
S1131BD03F100E94B110688301C01882DF91CF9139
S1131BE0089580349105A9F030F48130910559F0BD
S1131BF0089761F017C0811521E0920769F08115FB
S1131C00944069F00FC081E883BF089582E883BFE0
S1131C10089583E883BF089584E883BF089585E821
S1131C2083BF089513BE08958F929F92AF92BF927F
S1131C30CF92DF92EF92FF921F93CF93DF93CDB7B2
S1131C40DEB727970FB6F894DEBF0FBECDBF6B018A
S1131C507C01AE014F5F5F4F0E941A0D882371F023
S1131C60A7019601BE016D5F7F4F89819A810E9411
S1131C70870D1C821D821E821F8211C080E094E0A9
S1131C809A8389832CEE31E143E853E4C701B6011A
S1131C900E943F106C837D838E839F831B82CC8044
S1131CA0DD80EE80FF80C701B6010E94B110162FBF
S1131CB070E080E090E00E94E2109B01AC01C7015B
S1131CC0B6010E94CD0F2CEE31E143E853E40E94AB
S1131CD097110E94B110F62E8B8182BF111108C09A
S1131CE089819A810E94F10D08B600FEFDCF00C1E2
S1131CF085E883BF07C008B600FEFDCF115088B742
S1131D00816088BF1111F7CFFF2009F453C06F2DF4
S1131D1070E080E090E00E94E2104B015C0128EB4F
S1131D203EE145E85EE30E943A1018162CF081E08B
S1131D3090E09A8389833EC023E333E343E050E495
S1131D40C501B4010E943A1018162CF088E090E006
S1131D509A8389832FC02DE33AE043E851E4C50117
S1131D60B4010E943A1018162CF080E490E09A8393
S1131D70898320C02BE734E143E852E4C501B40170
S1131D800E943A1018162CF080E091E09A8389831F
S1131D9011C02CEE31E143E853E4C501B4010E94C3
S1131DA03A1018162CF080E094E09A83898302C0DC
S1131DB01A82198289819A818034910509F445C077
S1131DC030F48130910569F0089729F18CC08115B0
S1131DD021E0920709F453C08115944009F469C0C5
S1131DE082C06F2D70E080E090E00E94E2109B01C1
S1131DF0AC0168EB7EE185E89EE30E94CD0F2FE6FF
S1131E0032E143E85AE30E943F100E94B11062BFDE
S1131E1081E883BF6AC06F2D70E080E090E00E948B
S1131E20E2109B01AC0163E373E383E090E40E945E
S1131E30CD0F2FE632E143E05CE30E943F100E94A5
S1131E40B11062BF82E883BF50C06F2D70E080E0A4
S1131E5090E00E94E2109B01AC016DE37AE083E81C
S1131E6091E40E94CD0F2FE632E143E85DE30E9446
S1131E703F100E94B11062BF83E883BF36C06F2D4C
S1131E8070E080E090E00E94E2109B01AC016BE7FF
S1131E9074E183E892E40E94CD0F2FE632E143E837
S1131EA05EE30E943F100E94B11062BF84E883BFCA
S1131EB01CC06F2D70E080E090E00E94E2109B0156
S1131EC0AC016CEE71E183E893E40E94CD0F2FE640
S1131ED032E143E85FE30E943F100E94B11062BF09
S1131EE085E883BF02C012BE13BE08B600FEFDCF54
S1131EF088B7816088BF13BE27960FB6F894DEBFFB
S1131F000FBECDBFDF91CF911F91FF90EF90DF9077
S1131F10CF90BF90AF909F908F9008951F920F9293
S1131F200FB60F9211242F933F934F935F936F93A8
S1131F307F938F939F93AF93BF93EF93FF93E0911E
S1131F407101F09172013097B9F08091700188238A
S1131F5079F080916F018F5F80936F0190916F0191
S1131F6080917001981308C0099510926F0104C004
S1131F70099580916E0182BFFF91EF91BF91AF915E
S1131F809F918F917F916F915F914F913F912F918D
S1131F900F900FBE0F901F9018955058BB27AA277B
S1131FA00E94E50F0C9458110E944A1138F00E94C7
S1131FB0511120F039F49F3F19F426F40C94471181
S1131FC00EF4E095E7FB0C944111E92F0E9469118E
S1131FD058F3BA17620773078407950720F079F45A
S1131FE0A6F50C948B110EF4E0950B2EBA2FA02DB0
S1131FF00B01B90190010C01CA01A0011124FF27B2
S1132000591B99F0593F50F4503E68F11A16F040AC
S1132010A22F232F342F4427585FF3CF46953795AB
S11320202795A795F0405395C9F77EF41F16BA0B70
S1132030620B730B840BBAF09150A1F0FF0FBB1F1E
S1132040661F771F881FC2F70EC0BA0F621F731F67
S1132050841F48F4879577956795B795F7959E3FC4
S113206008F0B0CF9395880F08F09927EE0F979555
S1132070879508950E941D1108F481E008950E9437
S113208053100C9458110E94511158F00E944A1197
S113209040F029F45F3F29F00C94411151110C9444
S11320A08C110C9447110E94691168F39923B1F3C0
S11320B0552391F3951B550BBB27AA27621773076A
S11320C0840738F09F5F5F4F220F331F441FAA1FFE
S11320D0A9F335D00E2E3AF0E0E832D091505040BA
S11320E0E695001CCAF72BD0FE2F29D0660F771F68
S11320F0881FBB1F261737074807AB07B0E809F04E
S1132100BB0B802DBF01FF2793585F4F3AF09E3FD2
S1132110510578F00C9441110C948C115F3FE4F359
S1132120983ED4F3869577956795B795F7959F5F15
S1132130C9F7880F911D9695879597F90895E1E061
S1132140660F771F881FBB1F621773078407BA07C0
S113215020F0621B730B840BBA0BEE1F88F7E0951B
S113216008950E94711188F09F5798F0B92F99270C
S1132170B751B0F0E1F0660F771F881F991F1AF06E
S1132180BA95C9F714C0B13091F00E948B11B1E037
S113219008950C948B11672F782F8827B85F39F036
S11321A0B93FCCF3869577956795B395D9F73EF407
S11321B090958095709561957F4F8F4F9F4F0895AF
S11321C0E89409C097FB3EF49095809570956195CD
S11321D07F4F8F4F9F4F9923A9F0F92F96E9BB2783
S11321E09395F695879577956795B795F111F8CFFF
S11321F0FAF4BB0F11F460FF1BC06F5F7F4F8F4F6A
S11322009F4F16C0882311F096E911C0772321F05F
S11322109EE8872F762F05C0662371F096E8862FF7
S113222070E060E02AF09A95660F771F881FDAF74E
S1132230880F9695879597F90895990F0008550F7B
S1132240AA0BE0E8FEEF16161706E807F907C0F038
S113225012161306E407F50798F0621B730B840B40
S1132260950B39F40A2661F0232B242B252B21F41A
S113227008950A2609F4A140A6958FEF811D811DBA
S1132280089597F99F6780E870E060E008959FEFF4
S113229080EC089500240A941616170618060906F9
S11322A0089500240A9412161306140605060895C8
S11322B0092E0394000C11F4882352F0BB0F40F450
S11322C0BF2B11F460FF04C06F5F7F4F8F4F9F4F90
S11322D0089557FD9058440F551F59F05F3F71F012
S11322E04795880F97FB991F61F09F3F79F0879579
S11322F00895121613061406551FF2CF4695F1DF02
S113230008C0161617061806991FF1CF8695710591
S1132310610508940895E894BB2766277727CB01C5
S113232097F908950E941D1108F48FEF08950E94F3
S1132330AA110C9458110E944A1138F00E945111AC
S113234020F0952311F00C9441110C9447111124A1
S11323500C948C110E94691170F3959FC1F3950F31
S113236050E0551F629FF001729FBB27F00DB11D15
S1132370639FAA27F00DB11DAA1F649F6627B00DA5
S1132380A11D661F829F2227B00DA11D621F739F8E
S1132390B00DA11D621F839FA00D611D221F749F9C
S11323A03327A00D611D231F849F600D211D822FE3
S11323B0762F6A2F11249F5750409AF0F1F088230A
S11323C04AF0EE0FFF1FBB1F661F771F881F915037
S11323D05040A9F79E3F510580F00C9441110C9494
S11323E08C115F3FE4F3983ED4F386957795679517
S11323F0B795F795E7959F5FC1F7FE2B880F911D61
S11324009695879597F90895662777270C94201257
S1132410FB01DC018D91019080190110D9F3990B16
S11324200895FB01DC014150504048F001900D92A9
S11324300020C9F701C01D9241505040E0F70895B3
S1132440A0E0B0E0E6E2F2E10C94A313EC016B012E
S11324506115710519F0FB01918380837E01FFEF03
S1132460EF1AFF0A0881802F90E00E946E13892BD7
S113247011F0E701F3CF0D3239F47E0182E0E80E6A
S1132480F11C098111E008C00B3229F47E0192E0AD
S1132490E90EF11C098110E0E701219743E050E0C7
S11324A06CE570E0CE010E947713892BC1F423966A
S11324B045E050E067E570E0CE010E947713892B78
S11324C009F42596C114D10419F0F601D183C0830F
S11324D01111F6C060E070E080E89FE7FAC043E0C5
S11324E050E064E570E0CE010E947713892B59F423
S11324F0C114D10409F4E9C0F2E0EF0EF11CF601B5
S1132500F182E082E2C020E030E0A901C0E0D0E046
S1132510F70180EDA82EA00E89E08A1530F1912FE5
S11325209260B92E812F887012FF04C0811124C0DB
S1132530219622C081112197A5E0B0E00E94921358
S1132540DC01CB01880F991FAA1FBB1F9C01AD01A1
S11325502A0D311D411D511D283989E938074807C5
S113256089E1580748F0166006C09EEFA9120AC018
S113257013FD40C01860B12E8FEFE81AF80A0081ED
S11325801B2DC6CF802F8F7D8534A1F580818D32A0
S113259011F4106106C08B3221F0319661E070E0D5
S11325A004C08181329662E070E080538A3018F072
S11325B0E61BF70B1FC060E070E060389CE0790711
S11325C05CF4DB01AA0FBB1FAA0FBB1F6A0F7B1FA2
S11325D0660F771F680F711D3196DF0111978C917B
S11325E080538A3050F314FF03C0719561957109CB
S11325F0C60FD71F11FF08C0C114D10429F0CF01A1
S11326000197F60191838083CA01B9010E94E01009
S1132610212F2370233019F04B015C0106C04B01BC
S11326205C01B7FAB094B7F8B09420E030E0A901A7
S1132630C501B4010E943A10882309F43EC0D7FFB3
S113264006C0D195C195D10903E710E002C00BE89B
S113265010E06801F8E1CF1AD10890E2E92EF12CDC
S1132660CE15DF0574F0F80125913591459154910B
S1132670C501B4010E9497114B015C01CE19DF0919
S1132680EFCF04501109F594E7940C151D0541F79B
S11326908A2D880F8B2D881F8F3F49F020E030E072
S11326A0A901C501B4010E943A10811106C082E259
S11326B090E09093AE018093AD01C501B40109C0CF
S11326C060E070E080E89FEF04C060E070E080ECC0
S11326D09FE7CDB7DEB7ECE00C94BF1391110C94D7
S11326E08F13803219F089508550C8F70895FB0183
S11326F0DC014150504088F08D9181341CF08B35C1
S11327000CF4805E659161341CF06B350CF4605EF2
S1132710861B611171F3990B0895881BFCCF9927CF
S1132720882708950E94D413A59F900DB49F900DFF
S1132730A49F800D911D112408952F923F924F92D2
S11327405F926F927F928F929F92AF92BF92CF923D
S1132750DF92EF92FF920F931F93CF93DF93CDB746
S1132760DEB7CA1BDB0B0FB6F894DEBF0FBECDBFBE
S113277009942A88398848885F846E847D848C848F
S11327809B84AA84B984C884DF80EE80FD800C8198
S11327901B81AA81B981CE0FD11D0FB6F894DEBF7B
S11327A00FBECDBFED010895A29FB001B39FC0013C
S11327B0A39F700D811D1124911DB29F700D811D69
S10D27C01124911D0895F894FFCF31
S11327CA57454C434F4D4500496E736572742061F9
S11327DA204361726400454E54455220594F555264
S11327EA2050494E005800454E54455220414D4F01
S11327FA554E5400303030302E3030004F5554206E
S113280A464F52204D454E54454E414E4345004392
S113281A41524420446574656374656400524541B9
S113282A44494E47202E2E2E004F4B2E2E2E004961
S113283A4E56414C49442050494E0041544D204281
S113284A4C4F434B454400494E56414C494453204E
S113285A545259530054686973206973206120667D
S113286A72617564206361726400546869732063D9
S113287A6172642069732073746F6C656E00496EAB
S113288A73756666696369656E742066756E64003D
S113289A4D6178696D756D206C696D697420697311
S11328AA20657863656564656400417070726F764B
S11328BA6564205472616E73616374696F6E004556
S11128CA6A656374696E67204361726400007E
S9030000FC
