:100000000C942A000C9447000C9447000C94470071
:100010000C9447000C9447000C9447000C94470044
:100020000C9447000C9447000C9447000C94470034
:100030000C9447000C9447000C9447000C94470024
:100040000C9447000C9447000C9447000C94470014
:100050000C94470011241FBECFE5D8E0DEBFCDBF12
:1000600010E0A0E6B0E0EEE9F5E002C005900D92E8
:10007000A037B107D9F720E0A0E7B0E001C01D929A
:10008000A437B207E1F70E9454010C94CD020C94FE
:100090000000109272001092730083E690E00E94BC
:1000A00003018093710086E690E00E940301809333
:1000B000710089E690E00E940301809371008CE654
:1000C00090E00E94030180937100813019F090E06C
:1000D0000E94CD0260916000709161008091620089
:1000E0000E94D00080937000813019F090E00E944F
:1000F000CD0208956091600070916100809162006E
:1001000042E750E00E94DB00809370008130F1F5FF
:1001100080917200813089F5809173008F5F8093A8
:100120007300853070F490E001979C01220F331F1B
:10013000820F931F8D599F4F0E942401809371005D
:1001400013C090E0893091051CF0109273000CC030
:1001500005979C01220F331F820F931F8D599F4FCC
:100160000E943C018093710080917100813029F0E0
:10017000809173008150809373002FEF81EE94E0A3
:10018000215080409040E1F700C000002FE788E355
:1001900091E0215080409040E1F700C000000895B8
:1001A000A82FCB0160E00E945901813011F080E05E
:1001B000089581E00895EF92FF921F93CF93DF930C
:1001C0001F92CDB7DEB7362F272F182F7A01BE0129
:1001D0006F5F7F4F832F922F0E947D02813059F4F1
:1001E0008981181304C081E0F701808305C0F701FD
:1001F000108281E001C080E00F90DF91CF911F91CC
:10020000FF90EF900895CF93DF93FC01228122307D
:1002100098F0EC0182E0828361E0808191810E940C
:100220005901813059F460E0888199810E94EB0185
:10023000813031F41A8205C083E003C080E001C040
:1002400082E0DF91CF910895CF93DF93FC0122816B
:10025000223020F022E0228380E00BC0EC0161E03C
:10026000808191810E94EB01813011F48A8301C069
:1002700082E0DF91CF910895CF93DF93FC0122813B
:10028000223020F022E0228380E00BC0EC0160E00D
:10029000808191810E94EB01813011F41A8201C0AA
:1002A00082E0DF91CF9108950E9449000E947A0078
:1002B000FDCF983008F089C0853008F088C08130C3
:1002C00039F138F0823009F442C0833009F45EC05D
:1002D00080C061110FC04AB321E030E0B90102C013
:1002E000660F771F9A95E2F7CB01809584238ABB2E
:1002F00081E008954AB321E030E0B90102C0660F01
:10030000771F9A95E2F7CB01842B8ABB81E0089591
:1003100061110FC047B321E030E0B90102C0660FA0
:10032000771F9A95E2F7CB018095842387BB81E004
:10033000089547B321E030E0B90102C0660F771F8E
:100340009A95E2F7CB01842B87BB81E00895611178
:100350000FC044B321E030E0B90102C0660F771F3F
:100360009A95E2F7CB018095842384BB81E00895C0
:1003700044B321E030E0B90102C0660F771F9A95BF
:10038000E2F7CB01842B84BB81E0089561110FC09B
:1003900041B321E030E0B90102C0660F771F9A95A2
:1003A000E2F7CB018095842381BB81E0089541B3BE
:1003B00021E030E0B90102C0660F771F9A95E2F79D
:1003C000CB01842B81BB81E0089583E0089583E015
:1003D000089580E00895983008F089C0853008F0CD
:1003E00088C0813039F138F0823009F442C083305E
:1003F00009F45EC080C061110FC04BB321E030E052
:10040000B90102C0660F771F9A95E2F7CB0180957C
:1004100084238BBB81E008954BB321E030E0B90128
:1004200002C0660F771F9A95E2F7CB01842B8BBB36
:1004300081E0089561110FC048B321E030E0B901B7
:1004400002C0660F771F9A95E2F7CB01809584234F
:1004500088BB81E0089548B321E030E0B90102C0D3
:10046000660F771F9A95E2F7CB01842B88BB81E05A
:10047000089561110FC045B321E030E0B90102C019
:10048000660F771F9A95E2F7CB018095842385BB91
:1004900081E0089545B321E030E0B90102C0660F64
:1004A000771F9A95E2F7CB01842B85BB81E00895F5
:1004B00061110FC042B321E030E0B90102C0660F04
:1004C000771F9A95E2F7CB018095842382BB81E068
:1004D000089542B321E030E0B90102C0660F771FF2
:1004E0009A95E2F7CB01842B82BB81E0089583E0EB
:1004F000089583E0089580E00895983008F047C09B
:10050000853008F046C08130A9F028F0823009F12A
:10051000833071F140C089B3282F30E0A90102C0B7
:10052000559547959A95E2F7CA018170FB01808342
:1005300081E0089586B3282F30E0A90102C05595C7
:1005400047959A95E2F7CA018170FB01808381E0AB
:10055000089583B3282F30E0A90102C0559547952F
:100560009A95E2F7CA018170FB01808381E00895CA
:1005700080B3282F30E0A90102C0559547959A9580
:10058000E2F7CA018170FB01808381E0089583E076
:0E059000089583E0089580E00895F894FFCF69
:10059E000204010104020105020106020107020024
:00000001FF
