S01700004169725F636F6E646974696F6E65722E73726563F4
S11300000C942A000C94B7010C94E0010C9409029E
S11300100C943C000C943C000C943C000C943C006C
S11300200C943C000C943C000C943C000C94750221
S11300300C943C000C943C000C943C000C943C004C
S11300400C943C000C943C000C943C000C943C003C
S11300500C943C0011241FBECFE5D8E0DEBFCDBF19
S113006020E0A0E6B0E001C01D92AB36B207E1F794
S11300700E9443000C94A8040C94000067E083E001
S11300800E947501089541E066E083E00E947300D8
S113009041E067E083E00E9473008FB780688FBF00
S11300A06EE370E088E893E10E9432022FEF84E36C
S11300B09CE0215080409040E1F700C0000041E006
S11300C066E083E00E94F4002FEF84E39CE021507B
S11300D080409040E1F700C0000040E066E083E02B
S11300E00E94F400E3CF683008F078C0843008F050
S11300F077C0813011F130F08230D1F1833009F4CE
S113010052C070C0413061F42AB381E090E002C073
S1130110880F991F6A95E2F7822B8ABB81E00895C4
S11301202AB381E090E002C0880F991F6A95E2F734
S1130130809582238ABB81E00895413061F427B31E
S113014081E090E002C0880F991F6A95E2F7822B44
S113015087BB81E0089527B381E090E002C0880F57
S1130160991F6A95E2F78095822387BB81E0089501
S1130170413061F424B381E090E002C0880F991FFC
S11301806A95E2F7822B84BB81E0089524B381E071
S113019090E002C0880F991F6A95E2F78095822348
S11301A084BB81E00895413061F421B381E090E0A3
S11301B002C0880F991F6A95E2F7822B81BB81E008
S11301C0089521B381E090E002C0880F991F6A95D9
S11301D0E2F78095822381BB81E0089580E0089551
S11301E080E0089581E00895683008F078C0843094
S11301F008F077C0813011F130F08230D1F18330D2
S113020009F452C070C0413061F42BB381E090E036
S113021002C0880F991F6A95E2F7822B8BBB81E09D
S113022008952BB381E090E002C0880F991F6A956E
S1130230E2F7809582238BBB81E00895413061F41D
S113024028B381E090E002C0880F991F6A95E2F715
S1130250822B88BB81E0089528B381E090E002C03E
S1130260880F991F6A95E2F78095822388BB81E005
S11302700895413061F425B381E090E002C0880F15
S1130280991F6A95E2F7822B85BB81E0089525B317
S113029081E090E002C0880F991F6A95E2F780958B
S11302A0822385BB81E00895413061F422B381E06B
S11302B090E002C0880F991F6A95E2F7822B82BBF7
S11302C081E0089522B381E090E002C0880F991F75
S11302D06A95E2F78095822382BB81E0089580E0ED
S11302E0089580E0089581E008956830D0F5843061
S11302F0D0F5813091F028F08230D9F0833029F1A3
S113030034C02BB381E090E002C0880F991F6A9536
S1130310E2F782278BBB81E0089528B381E090E067
S113032002C0880F991F6A95E2F7822788BB81E093
S1130330089525B381E090E002C0880F991F6A9563
S1130340E2F7822785BB81E0089522B381E090E043
S113035002C0880F991F6A95E2F7822782BB81E069
S1130360089580E0089580E0089581E008951F9243
S11303700F920FB60F9211242F933F934F935F93D5
S11303806F937F938F939F93AF93BF93EF93FF9359
S1130390E0916400F0916500309709F00995FF91B0
S11303A0EF91BF91AF919F918F917F916F915F91E9
S11303B04F913F912F910F900FBE0F901F90189562
S11303C01F920F920FB60F9211242F933F934F93C6
S11303D05F936F937F938F939F93AF93BF93EF93A9
S11303E0FF93E0916200F0916300309709F0099562
S11303F0FF91EF91BF91AF919F918F917F916F91F9
S11304005F914F913F912F910F900FBE0F901F90CE
S113041018951F920F920FB60F9211242F933F93AA
S11304204F935F936F937F938F939F93AF93BF93F8
S1130430EF93FF93E0916000F0916100309709F031
S11304400995FF91EF91BF91AF919F918F917F910A
S11304506F915F914F913F912F910F900FBE0F902D
S11304601F901895CF93DF93EB0129B7216029BF23
S1130470863021E09207E0F4BC0180E090E00E9425
S1130480D9039B01AC016CEE71E183E893E40E9413
S1130490B4022FE632E143E85FE30E9438030E948E
S11304A021030E94AA03609366001092680011C0A1
S11304B0BC0180E090E00E94D9032CEE31E143E8D6
S11304C053E40E9438030E94AA03609368001092C8
S11304D066008091660082BFD0936A00C093690071
S11304E085E883BFDF91CF9108951F920F920FB6D5
S11304F00F9211242F933F934F935F936F937F93A6
S11305008F939F93AF93BF93EF93FF93E091690011
S1130510F0916A003097B9F080916800882379F0EF
S1130520809167008F5F809367009091670080914E
S11305306800981308C009951092670004C00995D3
S11305408091660082BFFF91EF91BF91AF919F911F
S11305508F917F916F915F914F913F912F910F9068
S11305600FBE0F901F9018955058BB27AA270E94C2
S1130570CC020C9456040E94480438F00E944F04A4
S113058020F039F49F3F19F426F40C9445040EF43A
S1130590E095E7FB0C941604E92F0E94670458F3D6
S11305A0BA17620773078407950720F079F4A6F554
S11305B00C94A1040EF4E0950B2EBA2FA02D0B0180
S11305C0B90190010C01CA01A0011124FF27591B94
S11305D099F0593F50F4503E68F11A16F040A22F9A
S11305E0232F342F4427585FF3CF4695379527950B
S11305F0A795F0405395C9F77EF41F16BA0B620B0A
S1130600730B840BBAF09150A1F0FF0FBB1F661F50
S1130610771F881FC2F70EC0BA0F621F731F841F93
S113062048F4879577956795B795F7959E3F08F0B9
S1130630B0CF9395880F08F09927EE0F979587957B
S113064008950E94890490F09F3748F4911116F49C
S11306500C94A20460E070E080E89FE3089526F023
S11306601B16611D711D811D0C941C040C94370410
S11306700E944C030C9456040E944F0458F00E94AC
S1130680480440F029F45F3F29F00C9416045111FA
S11306900C94A2040C9445040E94670468F3992303
S11306A0B1F3552391F3951B550BBB27AA2762176A
S11306B07307840738F09F5F5F4F220F331F441F77
S11306C0AA1FA9F335D00E2E3AF0E0E832D09150AB
S11306D05040E695001CCAF72BD0FE2F29D0660F98
S11306E0771F881FBB1F261737074807AB07B0E8DB
S11306F009F0BB0B802DBF01FF2793585F4F3AF0E1
S11307009E3F510578F00C9416040C94A2045F3FAC
S1130710E4F3983ED4F3869577956795B795F79566
S11307209F5FC9F7880F911D9695879597F908954E
S1130730E1E0660F771F881FBB1F621773078407EA
S1130740BA0720F0621B730B840BBA0BEE1F88F7F9
S1130750E09508950E946F0488F09F5798F0B92F90
S11307609927B751B0F0E1F0660F771F881F991FE2
S11307701AF0BA95C9F714C0B13091F00E94A104DF
S1130780B1E008950C94A104672F782F8827B85FEF
S113079039F0B93FCCF3869577956795B395D9F73A
S11307A03EF490958095709561957F4F8F4F9F4F44
S11307B00895E89409C097FB3EF490958095709550
S11307C061957F4F8F4F9F4F9923A9F0F92F96E999
S11307D0BB279395F695879577956795B795F1110E
S11307E0F8CFFAF4BB0F11F460FF1BC06F5F7F4FAB
S11307F08F4F9F4F16C0882311F096E911C07723BD
S113080021F09EE8872F762F05C0662371F096E8C5
S1130810862F70E060E02AF09A95660F771F881F94
S1130820DAF7880F9695879597F9089597F99F6752
S113083080E870E060E00895882371F4772321F064
S11308409850872B762F07C0662311F499270DC083
S11308509051862B70E060E02AF09A95660F771F1E
S1130860881FDAF7880F9695879597F908959F3F23
S113087031F0915020F4879577956795B795880F57
S1130880911D9695879597F908959FEF80EC0895AB
S113089000240A941616170618060906089500245B
S11308A00A9412161306140605060895092E0394D5
S11308B0000C11F4882352F0BB0F40F4BF2B11F449
S11308C060FF04C06F5F7F4F8F4F9F4F089557FDA8
S11308D09058440F551F59F05F3F71F04795880FAA
S11308E097FB991F61F09F3F79F087950895121641
S11308F013061406551FF2CF4695F1DF08C01616ED
S113090017061806991FF1CF86957105610508949D
S113091008950E946F04A0F0BEE7B91788F4BB27BE
S11309209F3860F41616B11D672F782F8827985FBB
S1130930F7CF869577956795B11D93959639C8F34A
S11309400895E894BB2766277727CB0197F9089584
S1070950F894FFCF45
S9030000FC
