S00B000042434D2E7372656347
S11300000C942A000C9447000C9447000C9447006D
S11300100C9447000C9447000C9447000C94470040
S11300200C9447000C9447000C9447000C94470030
S11300300C9447000C94E3000C9418010C944700B2
S11300400C9447000C9447000C9447000C94470010
S11300500C94470011241FBECFE5D8E0DEBFCDBF0E
S113006010E0A0E6B0E0E4E9F2E002C005900D92F1
S1130070A236B107D9F720E0A2E6B0E001C01D9294
S1130080A836B207E1F70E9449000C9448010C9489
S11300900000CF93DF93CDB7DEB761970FB6F89426
S11300A0DEBF0FBECDBF19821B8283E08A8383E348
S11300B090E0A0E0B0E08C879D87AE87BF8781E0A9
S11300C08B878A871C8289878887CE0101960E9444
S11300D07E0080E690E0998B888BBE01605F7F4F45
S11300E0CE0101960E94D4002FEF81EE94E02150BE
S11300F080409040E1F700C00000EFCFFC01238175
S113010030E0220F331F220F331F220F331F608171
S113011080E4689FB0011124928180E1989FA0013E
S1130120112434819181892F90E0880F991F2068D0
S1130130262B422B432B842B80BD2BB19581892FF9
S113014090E0880F991F922F9C7F892B8BB9218572
S113015080E1289FA00111249285292F30E0220FED
S1130160331F220F331F220F331F918196959695CB
S1130170892F90E0880F991F880F991F9AB1242B1B
S1130180822B9370892B8AB9838589B98385948559
S1130190A585B685892F9A2FAB2FBB2780BD808577
S11301A0813009F478940895809162008130E1F3FC
S11301B081E08093620070936500609364008AB16B
S11301C080628AB908951F920F920FB60F9211247C
S11301D02F933F938F939F93EF93FF93109263001A
S11301E08AB18F778AB9E0916600F0916700309701
S11301F0A1F08CB190E091838083529B0EC08AB1B0
S1130200827090E09695982F8827979587952081FE
S11302103181822B932B91838083FF91EF919F9166
S11302208F913F912F910F900FBE0F901F901895B3
S11302301F920F920FB60F9211242F933F938F9317
S11302409F93EF93FF93109262008AB18F7D8AB9D6
S1130250E0916400F0916500309779F0808191819C
S11302608CB9529B0AC08AB1E0916400F091650098
S1130270208131818E7F832B8AB9FF91EF919F91E9
S11302808F913F912F910F900FBE0F901F90189553
S1070290F894FFCF0C
S1050294300034
S9030000FC
