:100000000C942A000C943C000C943C000C943C0092
:100010000C943C000C943C000C943C000C943C0070
:100020000C943C000C943C000C943C000C943C0060
:100030000C943C000C943C000C943C000C943C0050
:100040000C943C000C943C000C943C000C943C0040
:100050000C943C0011241FBECFE5D8E0DEBFCDBF1D
:1000600020E0A0E6B0E001C01D92A136B207E1F7A2
:100070000E9472000C948E010C94000064E081E4F4
:100080000E94660064E083E40E945F0010926000BA
:10009000089540E650E064E083E40E9463008091AC
:1000A0006000813029F464E082E40E946A000895CF
:1000B000811104C064E082E40E946E00089540E073
:1000C0000E94770008950E945701089541E00E9420
:1000D0007700089541E00E94E700089540E00E9403
:1000E000E70008950E943E000E944900FDCF82343F
:1000F00019F118F4813439F008958334B1F184345E
:1001000009F44CC0089541110CC02AB381E090E07D
:1001100002C0880F991F6A95E2F7809582238ABBF7
:1001200008952AB381E090E002C0880F991F6A9574
:10013000E2F7822B8ABB089541110CC027B381E0FE
:1001400090E002C0880F991F6A95E2F7809582239C
:1001500087BB089527B381E090E002C0880F991F04
:100160006A95E2F7822B87BB089541110CC024B336
:1001700081E090E002C0880F991F6A95E2F78095B0
:10018000822384BB089524B381E090E002C0880FED
:10019000991F6A95E2F7822B84BB089541110CC028
:1001A00021B381E090E002C0880F991F6A95E2F7C1
:1001B0008095822381BB089521B381E090E002C045
:1001C000880F991F6A95E2F7822B81BB08958234CC
:1001D00019F118F4813439F008958334B1F184347D
:1001E00009F44CC0089541110CC02BB381E090E09C
:1001F00002C0880F991F6A95E2F7809582238BBB16
:1002000008952BB381E090E002C0880F991F6A9592
:10021000E2F7822B8BBB089541110CC028B381E01B
:1002200090E002C0880F991F6A95E2F780958223BB
:1002300088BB089528B381E090E002C0880F991F21
:100240006A95E2F7822B88BB089541110CC025B353
:1002500081E090E002C0880F991F6A95E2F78095CF
:10026000822385BB089525B381E090E002C0880F0A
:10027000991F6A95E2F7822B85BB089541110CC046
:1002800022B381E090E002C0880F991F6A95E2F7DF
:100290008095822382BB089522B381E090E002C062
:1002A000880F991F6A95E2F7822B82BB08958234EA
:1002B000A1F018F4813431F008958334C9F0843406
:1002C00011F1089589B390E002C0959587956A95DC
:1002D000E2F78170FA018083089586B390E002C04E
:1002E000959587956A95E2F78170FA018083089564
:1002F00083B390E002C0959587956A95E2F7817087
:10030000FA018083089580B390E002C095958795A7
:100310006A95E2F78170FA0180830895F894FFCF1F
:00000001FF
