:100000000C942A000C9447000C9447000C94470071
:100010000C9447000C9447000C9447000C94470044
:100020000C9447000C9447000C9447000C94470034
:100030000C9447000C9413040C943A040C9447005D
:100040000C9447000C9447000C9447000C94470014
:100050000C94470011241FBECFE5D8E0DEBFCDBF12
:1000600010E0A0E6B0E0E6ECF8E002C005900D92EA
:10007000A83AB107D9F721E0A8EAB0E001C01D9283
:10008000AD30B207E1F70E94CC000C9461040C94EF
:10009000000082E990E00E9488011092B000109266
:1000A000AF001092AE00EBEAF0E0128283E08183B1
:1000B0008083E8EAF0E0128294E0918380838BEA07
:1000C00090E00E94A70088EA90E00E94A7000895AF
:1000D000CF93DF931F92CDB7DEB7BE016F5F7F4F27
:1000E00082E990E00E943B028981813061F58BEAD0
:1000F00090E00E94C00088EA90E00E94C0008091D9
:10010000AE00811110C08BEA90E00E94B3004EE077
:1001100050E060E670E082E990E00E94C30181E077
:100120008093AE0010C0813071F488EA90E00E94A4
:10013000B3004FEA50E061EB70E082E990E00E948A
:100140000A021092AE000F90DF91CF910895CF93E5
:10015000DF93EC0161E0888199810E946D021A822F
:10016000DF91CF910895CF93DF93EC0161E0888117
:1001700099810E94F50281E08A83DF91CF910895F1
:10018000CF93DF93EC0160E0888199810E94F502B2
:100190001A82DF91CF9108950E9449000E94680061
:1001A000FDCF0F931F93CF93DF931F92CDB7DEB791
:1001B00019828091E40081110DC08091F40089833F
:1001C000CE0101960E94E2038091E4008F5F80934C
:1001D000E4002EC090E02091F3003091F400215013
:1001E00031098217930720F501EF10E0D801ED9156
:1001F000FC918E0F9F1FFC01319780818983CE0176
:1002000001960E94E2038091E4008F5F8093E400F6
:1002100090E0F80122813381215031098217930740
:1002200038F01092E4000E94D60381E0809396009B
:100230000F90DF91CF911F910F910895CF93DF938E
:100240001F92CDB7DEB719828091E300823018F596
:10025000CE0101960E94F003E091E700F091E800E2
:100260002091E300422F50E0440F551F440F551FCB
:10027000440F551F898190E002C0880F991F4A954D
:10028000E2F740815181842B952B918380832F5FEE
:100290002093E30039C090E0E091E700F091E8009E
:1002A000208131818217930778F5CE0101960E9453
:1002B000F003A5EEB0E02D913C9111978091E30001
:1002C000E82FF0E03297E20FF31F998190838F5F60
:1002D0008093E30090E01296ED91FC9113972081BA
:1002E00031818217930780F01092E3000E94DE03B1
:1002F000E091E700F091E80080819181029791837D
:10030000808381E0809396000F90DF91CF910895D4
:10031000CF93DF93009769F1DC0111962C9111972F
:10032000233048F5EC91F0E0EE0FFF1FEE0FFF1FBA
:10033000E350FF4F3181311120C0EC01222319F02D
:100340002330E8F404C08A819B810E947D03E88108
:10035000F0E0EE0FFF1FEE0FFF1FE350FF4F88810D
:100360009981AA81BB8180839183A283B38380E03A
:1003700007C081E005C081E003C082E001C084E0E5
:10038000DF91CF910895CF93DF931F92CDB7DEB762
:10039000009789F1DC01EC91E33078F5F0E0EE0FA5
:1003A000FF1FEE0FFF1FE350FF4F2181233038F571
:1003B0006115710531F14115510529F111968C91A5
:1003C000882321F0833008F184E020C01092960049
:1003D0004E5F5F4FE1EFF0E05383428371836083B0
:1003E0004983CE0101960E94E20381ED90E00E94D4
:1003F000050480E00BC081E009C081E007C083E014
:1004000005C085E003C085E001C080E00F90DF916A
:10041000CF910895009739F1DC01EC91E33028F594
:10042000F0E0EE0FFF1FEE0FFF1FE350FF4F2181A3
:100430002330E8F411968C91882321F08330C8F0A2
:1004400084E00895DA01109296001D921C92E5EE68
:10045000F0E053834283718360838EE191E00E94D8
:100460000C0480E0089581E0089581E0089583E020
:10047000089580E00895009741F1DC01EC91E330AC
:1004800030F5F0E0EE0FFF1FEE0FFF1FE350FF4FC0
:1004900021812330F0F411968C91813051F018F0C5
:1004A000823069F018C080919600FB01808380E063
:1004B000089580919700DB018C9380E008958091EE
:1004C0009800FB01808380E0089581E0089581E039
:1004D000089583E0089584E00895813039F138F07B
:1004E000823009F442C0833009F45EC07CC06111DF
:1004F0000FC04AB321E030E0B90102C0660F771F98
:100500009A95E2F7CB01809584238ABB81E0089518
:100510004AB321E030E0B90102C0660F771F9A9517
:10052000E2F7CB01842B8ABB81E0089561110FC0F3
:1005300047B321E030E0B90102C0660F771F9A95FA
:10054000E2F7CB018095842387BB81E0089547B310
:1005500021E030E0B90102C0660F771F9A95E2F7FB
:10056000CB01842B87BB81E0089561110FC044B398
:1005700021E030E0B90102C0660F771F9A95E2F7DB
:10058000CB018095842384BB81E0089544B321E0AE
:1005900030E0B90102C0660F771F9A95E2F7CB01F0
:1005A000842B84BB81E0089561110FC041B321E029
:1005B00030E0B90102C0660F771F9A95E2F7CB01D0
:1005C0008095842381BB81E0089541B321E030E030
:1005D000B90102C0660F771F9A95E2F7CB01842B11
:1005E00081BB81E0089580E00895813039F138F0D1
:1005F000823009F442C0833009F45EC07CC06111CE
:100600000FC04BB321E030E0B90102C0660F771F85
:100610009A95E2F7CB01809584238BBB81E0089506
:100620004BB321E030E0B90102C0660F771F9A9505
:10063000E2F7CB01842B8BBB81E0089561110FC0E1
:1006400048B321E030E0B90102C0660F771F9A95E8
:10065000E2F7CB018095842388BB81E0089548B3FD
:1006600021E030E0B90102C0660F771F9A95E2F7EA
:10067000CB01842B88BB81E0089561110FC045B385
:1006800021E030E0B90102C0660F771F9A95E2F7CA
:10069000CB018095842385BB81E0089545B321E09B
:1006A00030E0B90102C0660F771F9A95E2F7CB01DF
:1006B000842B85BB81E0089561110FC042B321E016
:1006C00030E0B90102C0660F771F9A95E2F7CB01BF
:1006D0008095842382BB81E0089542B321E030E01D
:1006E000B90102C0660F771F9A95E2F7CB01842B00
:1006F00082BB81E0089580E00895FC01238130E011
:10070000220F331F220F331F220F331F608180E41B
:10071000689FB0011124928180E1989FA00111246B
:1007200034819181892F90E0880F991F2068262BB2
:10073000422B432B842B80BD2BB19581892F90E0D8
:10074000880F991F922F9C7F892B8BB9218580E17F
:10075000289FA00111249285292F30E0220F331FFA
:10076000220F331F220F331F918196959695892F63
:1007700090E0880F991F880F991F9AB1242B822B24
:100780009370892B8AB9858589B9868580BD8385D3
:10079000813031F08485813019F08085813009F411
:1007A000789408958AB180628AB908958AB18F7D5C
:1007B0008AB908958AB180688AB908958AB18F7715
:1007C0008AB908955D9BFECFFC0120812CB9529B14
:1007D00006C02AB19081822F8E7F892B8AB9089515
:1007E000FC015F9BFECF2CB1422F50E05183408330
:1007F000529B0AC09AB19270292F30E0220F331F0A
:10080000242B352B31832083089590930C01809302
:100810000B010E94D203089590930A01809309016D
:100820000E94DA0308951F920F920FB60F921124BF
:100830002F933F934F935F936F937F938F939F93E8
:10084000AF93BF93EF93FF93E0910901F0910A01F9
:100850000995FF91EF91BF91AF919F918F917F91FA
:100860006F915F914F913F912F910F900FBE0F901D
:100870001F9018951F920F920FB60F9211242F936D
:100880003F934F935F936F937F938F939F93AF9318
:10089000BF93EF93FF93E0910B01F0910C01099549
:1008A000FF91EF91BF91AF919F918F917F916F9148
:1008B0005F914F913F912F910F900FBE0F901F901E
:0608C0001895F894FFCF2B
:1008C60042434D204F7065726174696E6700000087
:1008D6000000000000000000000000000000000012
:1008E6000000000000000000000000000000000002
:1008F6000000000099000100000003000000000154
:080906000101010101003300B1
:00000001FF
