S013000041544D5F70726F6A6563742E73726563D9
S11300000C942A000C9447000C9447000C9447006D
S11300100C9447000C9447000C9447000C94470040
S11300200C9447000C9447000C9447000C94D4059E
S11300300C9447000C9447000C9447000C94470020
S11300400C9447000C9447000C9447000C94470010
S11300500C94470011241FBECFE5D8E0DEBFCDBF0E
S113006011E0A0E6B0E0EAE6FDE002C005900D92E2
S1130070A232B107D9F721E0A2E2B1E001C01D929A
S1130080A732B207E1F70E94CC020C94B3060C9499
S11300900000AF92BF92CF92DF92EF92FF920F9344
S11300A01F93CF93DF937C015B016A01122FD0E091
S11300B03EC0C6010E945D06C7010E9470068DE025
S11300C00E945506C7010E945D068DE00E945506F8
S11300D0C0E001C0CF5FF701EC0FF11D80818111F9
S11300E0F9CF9D2F13C0F701E80FF11D90819053B4
S11300F09A3018F48F5F91E009C080E690E00E9486
S11301005D068DE00E9455069D2F02C08C1758F3A2
S1130110C11720F00C1710F0911108C085E790E08A
S11301200E945D068DE00E94550601C0D1E0DD23EA
S113013009F4BFCFF501C083DF91CF911F910F91D7
S1130140FF90EF90DF90CF90BF90AF900895BF9253
S1130150CF92DF92EF92FF920F931F93CF93DF938F
S11301608C016B017A01B22ED0E03CC0C7010E9421
S11301705D06C8010E9470068DE00E945506C80104
S11301800E945D068DE00E945506C0E001C0CF5F6D
S1130190F801EC0FF11D80818111F9CF9D2F13C05F
S11301A0F801E80FF11D908190539A3018F48F5F95
S11301B091E009C080E690E00E945D068DE00E9417
S11301C055069D2F02C08C1758F3CB1102C0911114
S11301D008C08EE890E00E945D068DE00E945506FE
S11301E001C0D1E0DD2311F2F601C083DF91CF918C
S11301F01F910F91FF90EF90DF90CF90BF900895E3
S1130200DC0190E00DC0292F30E0FD01E20FF31F67
S11302105081FB01E20FF31F2081521305C09F5F41
S1130220941788F381E0089580E0089540E060E049
S113023081E00E94000583ED90E30197F1F700C08F
S1130240000041E060E081E00E94000508951F93F2
S1130250CF93DF93CDB7DEB7A0970FB6F894DEBF88
S11302600FBECDBF1F8E18A2AE01415E5F4F6FEF70
S113027070E080E090E00E94610283EC99E00197D5
S1130280F1F700C0000010E017C0412F50E0BA01A0
S11302907395E1E0F0E0EC0FFD1F4E0F5F1F072E9A
S11302A0000C880B990B0E94610283EC99E0019782
S11302B0F1F700C000001F5F8F8D181730F3AE01F7
S11302C0405E5F4F64E271E080E090E00E94610272
S11302D0E3ECF9E03197F1F700C0000010E018C03A
S11302E0412F50E0BA016B5D7E4F85E190E08C0FA9
S11302F09D1F480F591F072E000C880B990B0E9455
S11303006102E3ECF9E03197F1F700C000001F5FF0
S113031088A1181728F380E009C08F8D0E94CF05AB
S1130320E3ECF9E03197F1F700C000008A3AA9F74D
S113033010E010C0E1E0F0E0EC0FFD1FE10FF11D53
S113034080810E94CF0583EC99E00197F1F700C00A
S113035000001F5F8F8D181768F39FE3EDE0F3E053
S11303609150E040F040E1F700C0000080E009C097
S11303708BEB0E94CF05E3ECF9E03197F1F700C075
S113038000008F3FA9F710E010C0E5E1F0E0EC0FAA
S1130390FD1FE10FF11D80810E94CF0583EC99E0E0
S11303A00197F1F700C000001F5F88A1181768F3D8
S11303B0A0960FB6F894DEBF0FBECDBFDF91CF91EC
S11303C01F91089583EA90E00E945D068DE00E94EB
S11303D055068FEA90E00E945D068DE00E94550666
S11303E082EC90E00E945D068DE00E94550608951F
S11303F060E875E280E090E00E9434060E941306F3
S11304000E94B5056FEF80E00E94810560E080E006
S11304100E949B0541E060E081E00E947F0440E08F
S113042060E081E00E9400050895CF92DF92EF9290
S1130430FF92CF936B017C01C42F0E941A060E9485
S11304403106883079F5D701C60188279927A07627
S1130450BB27072E7FE0B695A795979587957A9544
S1130460D1F7702D806A0E9423060E9431068831DC
S1130470D9F48D2D0E9423060E9431068832B1F4EE
S11304808C2D0E9423060E943106883289F48C2F19
S11304900E9423060E943106883261F40E942006DD
S11304A081E009C080E007C080E005C080E003C0AF
S11304B080E001C080E0CF91FF90EF90DF90CF907B
S11304C008958F929F92AF92BF92CF92DF92EF9254
S11304D0FF92CF93DF936B017C01EA010E941A061D
S11304E00E943106883009F03FC046015701882434
S11304F0992480E6A822BB24072E7FE0B694A79413
S1130500979487947A95D1F7702D882D806A0E94EC
S113051023060E943106883149F58D2D0E94230659
S11305200E943106883221F58C2D0E9423060E94F8
S113053031068832F9F40E941A060E94310680318D
S1130540D9F4882D816A0E9423060E9431068034E2
S1130550A9F40E942A0688830E943106883581F412
S11305600E94200681E00DC080E00BC080E009C03D
S113057080E007C080E005C080E003C080E001C0E7
S113058080E0DF91CF91FF90EF90DF90CF90BF900C
S1130590AF909F908F900895AF92BF92CF92DF92C9
S11305A0FF920F931F93CF93DF93CDB7DEB7AC9732
S11305B00FB6F894DEBF0FBECDBF1AA61BA61CA6AD
S11305C00E94F801AE014F5F5F4F60E570E080E08C
S11305D090E00E94610289818F3F09F0AFC003E17E
S11305E020E14EEC50E0BE01665D7F4FCE010296E5
S11305F00E94490010E024E042EE50E0BE01655D37
S11306007F4FCE0146960E94A70024E04FED50E0B4
S1130610BE01645D7F4FCE0180960E94A7004BA56A
S1130620BE01605E7F4FCE0146960E940001882382
S113063009F471C083EF90E00E945D064AA56FEF54
S113064070E080E090E00E94150283EC99E001974D
S1130650F1F700C00000F12C18C08F2D90E05C0170
S1130660B394E2E0F0E0EC0FFD1FE80FF91FB501D1
S1130670BB0C880B990B40810E94150283EC99E016
S11306800197F1F700C00000F3948AA5F81628F347
S11306904BA564E271E080E090E00E94150283ECD7
S11306A099E00197F1F700C00000F12C1BC08F2DD9
S11306B090E05C012BEDA21A2EEFB20AE6E1F0E025
S11306C0EC0FFD1FE80FF91FB501BB0C880B990B4C
S11306D040810E94150283EC99E00197F1F700C074
S11306E00000F3948BA5F81610F340E060E570E089
S11306F080E090E00E94150283EC99E00197F1F705
S113070000C000006AEA80E00E949B050E94160176
S11307100E9427010BC082E091E00E945D061F5FEA
S11307208DE00E945506133008F465CF133009F0AC
S1130730D4C064E480E00E949B05CFC06BEB80E0F2
S11307400E949B050E94E20110E00E945906813339
S113075021F0823309F4B0C0B8C003E120E14EECCB
S113076050E0BE01665D7F4FCE0102960E944900B3
S113077024E042EE50E0BE01655D7F4FCE01469617
S11307800E94A70024E04FED50E0BE01645D7F4F5E
S1130790CE0180960E94A7004BA5BE01605E7F4FEC
S11307A0CE0146960E940001882309F472C083EFAB
S11307B090E00E945D064AA56FEF70E080E090E053
S11307C00E94150283EC99E00197F1F700C0000044
S11307D010E018C0812F90E06C01D394E2E0F0E0C7
S11307E0EC0FFD1FE80FF91FB601DD0C880B990B08
S11307F040810E94150283EC99E00197F1F700C053
S113080000001F5F8AA5181728F34BA564E271E066
S113081080E090E00E94150283EC99E00197F1F7E3
S113082000C0000010E01BC0812F90E06C012BED94
S1130830C21A2EEFD20AE6E1F0E0EC0FFD1FE80F3A
S1130840F91FB601DD0C880B990B40810E9415023B
S113085083EC99E00197F1F700C000001F5F8BA5BE
S1130860181710F340E060E570E080E090E00E942B
S1130870150283EC99E00197F1F700C000006AEAE1
S113088080E00E949B050E9416010E94270110E04F
S11308900BC082E091E00E945D061F5F8DE00E9424
S11308A05506133008F464CF133009F04ECF64E4D6
S11308B080E00E949B0549CF68E880E00E949B0588
S11308C00E9416010E94270140CF85E191E00E9419
S11308D05D068DE00E94550638CF80E090E0AC962E
S11308E00FB6F894DEBF0FBECDBFDF91CF911F913D
S11308F00F91FF90DF90CF90BF90AF900895683034
S113090008F078C0843008F077C0813011F130F0FD
S11309108230D1F1833009F452C070C0413061F4A7
S11309202AB381E090E002C0880F991F6A95E2F72C
S1130930822B8ABB81E008952AB381E090E002C053
S1130940880F991F6A95E2F7809582238ABB81E01C
S11309500895413061F427B381E090E002C0880F2C
S1130960991F6A95E2F7822B87BB81E0089527B32C
S113097081E090E002C0880F991F6A95E2F78095A4
S1130980822387BB81E00895413061F424B381E080
S113099090E002C0880F991F6A95E2F7822B84BB0E
S11309A081E0089524B381E090E002C0880F991F8C
S11309B06A95E2F78095822384BB81E008954130F3
S11309C061F421B381E090E002C0880F991F6A9519
S11309D0E2F7822B81BB81E0089521B381E090E0AE
S11309E002C0880F991F6A95E2F78095822381BB24
S11309F081E0089580E0089580E0089581E00895FD
S1130A00683008F078C0843008F077C0813011F184
S1130A1030F08230D1F1833009F452C070C04130DB
S1130A2061F42BB381E090E002C0880F991F6A95AE
S1130A30E2F7822B8BBB81E008952BB381E090E039
S1130A4002C0880F991F6A95E2F7809582238BBBB9
S1130A5081E00895413061F428B381E090E002C060
S1130A60880F991F6A95E2F7822B88BB81E008956D
S1130A7028B381E090E002C0880F991F6A95E2F7DD
S1130A808095822388BB81E00895413061F425B3C9
S1130A9081E090E002C0880F991F6A95E2F7822BEB
S1130AA085BB81E0089525B381E090E002C0880F02
S1130AB0991F6A95E2F78095822385BB81E00895AA
S1130AC0413061F422B381E090E002C0880F991FA5
S1130AD06A95E2F7822B82BB81E0089522B381E01C
S1130AE090E002C0880F991F6A95E2F780958223EF
S1130AF082BB81E0089580E0089580E0089581E05C
S1130B0008958430A0F4813049F028F0823049F00F
S1130B10833051F00EC06ABB81E0089567BB81E069
S1130B20089564BB81E0089561BB81E0089580E08D
S1130B30089581E008958430A0F4813049F028F0CC
S1130B40823049F0833051F00EC06BBB81E00895D0
S1130B5068BB81E0089565BB81E0089562BB81E0D4
S1130B60089580E0089581E0089541E064E081E023
S1130B700E947F0441E065E081E00E947F0440E040
S1130B8066E081E00E947F0441E067E081E00E942A
S1130B907F0480E58DB98EB18E7F8EB908958FB9AB
S1130BA0779BFECF8FB108951F920F920FB60F92CD
S1130BB011242F933F934F935F936F937F938F935E
S1130BC09F93AF93BF93EF93FF93E0912501F0912F
S1130BD026013097B9F080912401882379F080911F
S1130BE023018F5F8093230190912301809124013D
S1130BF0981308C009951092230104C009958091A7
S1130C00220182BFFF91EF91BF91AF919F918F918C
S1130C107F916F915F914F913F912F910F900FBEF4
S1130C200F901F90189582E080B911B882B984E0C2
S1130C3086BF089584EA86BF06B607FEFDCF0895F1
S1130C4084E986BF089583B984E886BF06B607FEA3
S1130C50FDCF089584E886BF06B607FEFDCF83B1B5
S1130C60089581B1887F089522E02BB928E12AB93B
S1130C7026E820BDDC01CB01880F991FAA1FBB1FEA
S1130C80880F991FAA1FBB1F9C01AD01220F331FA0
S1130C90441F551F60E472E48FE090E00E949106C7
S1130CA02150310930BD29B908955D9BFECF8CB91F
S1130CB008955F9BFECF8CB108950F931F93CF933C
S1130CC08C01C0E003C00E945506CF5FF801EC0F11
S1130CD0F11D80818111F7CFCF911F910F9108955C
S1130CE0EF92FF920F931F93CF938C010E945906AA
S1130CF0F8018083C0E008C0CF5F7801EC0EF11CDE
S1130D000E945906F7018083F801EC0FF11D8081E0
S1130D10833291F71082CF911F910F91FF90EF9042
S1130D200895A1E21A2EAA1BBB1BFD010DC0AA1F28
S1130D30BB1FEE1FFF1FA217B307E407F50720F040
S1130D40A21BB30BE40BF50B661F771F881F991FBB
S1130D501A9469F760957095809590959B01AC0104
S10D0D60BD01CF010895F894FFCF00
S1130D6A656E746572206E756D65726963206E7541
S1130D7A6D62657200656E7465722031362D313983
S1130D8A206469676974206E756D62657200656EA8
S1130D9A7465722034206469676974206E756D62A3
S1130DAA65720073797374656D206D656E750031B3
S1130DBA2D70726F6772616D6D696E67206D6F64F5
S1130DCA6500322D75736572206D6F646500656EFA
S1130DDA7465722050414E206E756D6265720072A0
S1130DEA655F656E7465722050494E206E756D623A
S1130DFA65720070617373776F7264206D617463D6
S1130E0A680070617373776F7264206E6F74206DFB
S1130E1A617463680077726F6E6720696E707574A7
S1050E2A0000C2
S9030000FC
