S01D00004F6273746163616C2061766F6964696E67206361722E7372656317
S11300000C9446000C946F0A0C94960A0C94BD0A46
S11300100C9463000C94FB0D0C9463000C9463002B
S11300200C9463000C94140B0C9463000C94E40A79
S11300300C9463000C9463000C9463000C946300B0
S11300400C9463000C9463000C9463000C946300A0
S11300500C946300ED0BF80B030C130D0E0C130D35
S1130060190C240C2F0C3A0C500C5B0C660C150D5F
S1130070710C150D7C0C870C920C9D0CB30CBE0CF2
S1130080C90CD40CDF0CEA0CF50C000D11241FBEB6
S1130090CFE5D8E0DEBFCDBF11E0A0E6B0E0E2EEF0
S11300A0FFE102C005900D92A235B107D9F721E016
S11300B0A2E5B1E001C01D92A238B207E1F70E94A7
S11300C0AD080C94EF0F0C9400009091540181E062
S11300D08927809354010895809155018F5F8093FF
S11300E0550180E690E00E94D30708950E947608A7
S11300F00E9490080E94C90487E690E00E940F06BF
S113010063E080E00E942B0480E690E00E949A075E
S11301100E944E070E94B30384EF97E00E94A70851
S113012088E098E00E94AA0885E690E00E944104D5
S113013008950E9497081092550180E690E00E946D
S1130140BA070E944C041DC080915401813079F497
S113015064E00E94BB0580E20E942A0560E081E021
S11301600E94BB058CE890E00E94D3050AC081116F
S113017008C060E081E00E94BB0581E990E00E9434
S1130180D305809155018330F8F20E94A405809133
S113019060000E94CC070E9449040E94900860E01D
S11301A080E00E94BB0587E990E00E94D30560E0EF
S11301B081E00E94BB0587EA90E00E94D3052FEFFF
S11301C083ED90E3215080409040E1F700C00000AF
S11301D00E94A4050895CF92DF92EF92FF9288E7E0
S11301E091E00E944C06809178018E3469F081334D
S11301F019F0823321F008C01092750005C081E027
S1130200809375001092580180917500811140C24D
S113021080915301811110C00E94A40560E080E028
S11302200E94BB058EEA90E00E94D3050E949900CB
S113023081E08093530166C0813009F063C00E945D
S11302409C086093790170937A0180937B01909369
S11302507C018FE295E70197F1F700C00000C090A0
S11302607901D0907A01E0907B01F0907C0120E04C
S113027030E04CE852E4C701B6010E94870F18161B
S113028024F481E0809352013DC020E030E040EF4F
S113029051E4C701B6010E94870F181674F420E0D8
S11302A030E04CE852E4C701B6010E942F0E181644
S11302B024F082E08093520125C020E030E040EA3F
S11302C051E4C701B6010E94870F882374F020E02F
S11302D030E040EF51E4C701B6010E942F0E18161A
S11302E024F083E0809352010DC020E030E040EA26
S11302F051E4C701B6010E942F0E88231CF484E048
S11303008093520180915201813009F06DC0609157
S1130310790170917A0180917B0190917C0120E0B8
S113032030E046EC52E40E94870F181664F480E033
S113033090E0A6ECB2E48093790190937A01A093C3
S11303407B01B0937C0160E081E00E94BB058CEBF3
S113035090E00E94D3056091790170917A018091B7
S11303607B0190917C010E94A60E0E94F00583EC13
S113037090E00E94D3051092550180E690E00E941F
S1130380BA0711C060E080E00E94BB0587EC90E0F2
S11303900E94D30582ED90E00E94D30540E064E121
S11303A08EE10E945D0780915501863020F4809192
S11303B05601882339F381E08093560180916000CF
S11303C00E94CC0760E080E00E94BB0588ED90E0CD
S11303D00E94D30582ED90E00E94D30540E064E1E1
S11303E082E30E945D07BAC1823061F51092560122
S11303F060E081E00E94BB058CEB90E00E94D30595
S11304006091790170917A0180917B0190917C01D6
S11304100E94A60E0E94F00583EC90E00E94D30592
S113042060E080E00E94BB0587EC90E00E94D30569
S113043082ED90E00E94D30540E064E18EE10E94E9
S11304405D078CC1833009F0A4C0109256010E944C
S1130450890760E081E00E94BB058CEB90E00E947C
S1130460D3056091790170917A0180917B0190911B
S11304707C010E94A60E0E94F00583EC90E00E948D
S1130480D30560E080E00E94BB0583EE90E00E940B
S1130490D3058CEE90E00E94D3050E94170460E01F
S11304A080E00E94BB0582EF90E00E94D3058DEFAF
S11304B090E00E94D3051092550180E690E00E94DE
S11304C0BA0755C080915501853060F4809154017C
S11304D0813019F40E94030409C0811107C00E94ED
S11304E0EF0304C082E08093750038C188E791E08F
S11304F00E944C0680917801823331F481E080932C
S11305007500109258012AC10E949C0860937901D9
S113051070937A0180937B0190937C0160E081E089
S11305200E94BB058CEB90E00E94D3056091790199
S113053070917A0180917B0190917C010E94A60EBA
S11305400E94F00583EC90E00E94D305609179014C
S113055070917A0180917B0190917C0120E030E0E0
S113056040EA51E40E942F0E18160CF0F7C0609177
S1130570790170917A0180917B0190917C0120E056
S113058030E040EF51E40E942F0E18160CF09ACF81
S1130590E5C0843009F0E2C01092560160E081E0C9
S11305A00E94BB058CEB90E00E94D3056091790119
S11305B070917A0180917B0190917C010E94A60E3A
S11305C00E94F00583EC90E00E94D30560E080E097
S11305D00E94BB0583E091E00E94D3058CEE90E07D
S11305E00E94D3050E94170460E080E00E94BB05CE
S11305F087EC90E00E94D3058DE091E00E94D30542
S113060035C041E064E18EE10E945D070E949C08D0
S11306106093790170937A0180937B0190937C01BC
S113062060E081E00E94BB058CEB90E00E94D30562
S11306306091790170917A0180917B0190917C01A4
S11306400E94A60E0E94F00583EC90E00E94D30560
S113065088E791E00E944C0680917801823331F45E
S113066081E0809375001092580178C060917901FF
S113067070917A0180917B0190917C0120E030E0BF
S113068040EA51E40E942F0E18160CF0BACF66C04F
S11306908130D1F480915801811109C00E94A405D0
S11306A01092590181E0809358011092570160E043
S11306B080E00E94BB0583E191E00E94D3050E9483
S11306C017040E9489074AC0823099F50E94A40544
S11306D060E080E00E94BB0583E191E00E94D305C5
S11306E00E9417049FEF23ED80E391502040804047
S11306F0E1F700C000000E94A40560E080E00E94D1
S1130700BB0581E291E00E94D30560E081E00E9494
S1130710BB0581E391E00E94D3059FEF29E688E1C0
S1130720915020408040E1F700C000001092750015
S113073015C080915901811109C00E94A40581E06E
S113074080935901109258011092570160E080E0A3
S11307500E94BB0587E391E00E94D305FF90EF90D0
S1130760DF90CF900895CF9389E790E00E94C90667
S1130770C82F86E790E00E94C906C11103C0811109
S113078003C003C08BE001C08BE0CF910895CF93E9
S113079089E790E00E94E106C82F86E790E00E9476
S11307A0E106C11103C0811103C003C08BE001C085
S11307B08BE0CF910895CF9389E790E00E94F906EA
S11307C0C82F86E790E00E94F906C11103C0811189
S11307D003C003C08BE001C08BE0CF910895CF9399
S11307E089E790E00E94E106C82F86E790E00E9426
S11307F0F906C11103C0811103C003C08BE001C01D
S11308008BE0CF910895CF9389E790E00E94E106B1
S1130810C82F86E790E00E94F906811103C0C11138
S113082003C003C08BE001C08BE0CF910895CF9348
S113083089E790E00E941107C82F86E790E00E94A4
S11308401107C11103C0811103C003C08BE001C0B3
S11308508BE0CF910895CF93DF93C82FD62F40E03C
S113086062E083E00E94B20840E062E083E00E941C
S1130870EC086D2F8C2F0E94D20980E0DF91CF917C
S11308800895009721F00E944F0A80E0089585E0C2
S113089008950E94590A08950E945D0A08950F93CD
S11308A01F93CF93DF93182F40E060E083E00E9412
S11308B0EC08C82F40E067E082E00E94EC08C82BF7
S11308C0012F02950F70D0E015C0ED2FF0E0402FFE
S11308D050E00D2E02C0559547950A94E2F74170F9
S11308E0EE0FFF1FE458FF4F618180810E94EC08E6
S11308F0C82BDF5FD43048F341E061E083E00E941D
S1130900EC08C82B89EF90E00197F1F700C00000D4
S113091040E061E083E00E94EC08C82B92E49A95E1
S1130920F1F700C01F70D0E015C0ED2FF0E0412FAB
S113093050E00D2E02C0559547950A94E2F7417098
S1130940EE0FFF1FE458FF4F618180810E94EC0885
S1130950C82BDF5FD43048F341E061E083E00E94BC
S1130960EC08C82BE9EFF0E03197F1F700C0000084
S113097040E061E083E00E94EC088C2BE3EFF1E0BF
S11309803197F1F700C00000DF91CF911F910F91D3
S11309900895CF93DF93D0E0C0E00DC0ED2FF0E0D9
S11309A0EE0FFF1FE458FF4F41E0618180810E94F8
S11309B0B208C82BDF5FD43088F341E067E082E0FF
S11309C00E94B208C82B41E060E083E00E94B208B4
S11309D0C82B41E061E083E00E94B208C82B8FE09D
S11309E097E20197F1F700C0000082E00E944F04F3
S11309F0C82BE9EFF0E03197F1F700C0000088E27E
S1130A000E944F04C82B89EF90E00197F1F700C0D2
S1130A10000081E00E944F04C82BE7EEF3E0319719
S1130A20F1F700C0000086E00E944F04C82B89EF54
S1130A3090E00197F1F700C000008CE00E944F04A1
S1130A408C2BE9EFF0E03197F1F700C00000DF9163
S1130A50CF9108950F931F93CF93DF93182F40E006
S1130A6060E083E00E94EC08C82F41E067E082E088
S1130A700E94EC08C82B012F02950F70D0E015C01E
S1130A80ED2FF0E0402F50E00D2E02C05595479514
S1130A900A94E2F74170EE0FFF1FE458FF4F6181A3
S1130AA080810E94EC08C82BDF5FD43048F341E01A
S1130AB061E083E00E94EC08C82B89EF90E0019785
S1130AC0F1F700C0000040E061E083E00E94EC0820
S1130AD0C82B92E49A95F1F700C01F70D0E015C0BE
S1130AE0ED2FF0E0412F50E00D2E02C055954795B3
S1130AF00A94E2F74170EE0FFF1FE458FF4F618143
S1130B0080810E94EC08C82BDF5FD43048F341E0B9
S1130B1061E083E00E94EC08C82BE9EFF0E0319734
S1130B20F1F700C0000040E061E083E00E94EC08BF
S1130B308C2BE3EFF1E03197F1F700C00000DF9177
S1130B40CF911F910F910895CF9381E00E944F049C
S1130B50C82F87EE93E00197F1F700C0000082E010
S1130B600E944F048C2BE7EEF3E03197F1F700C0BD
S1130B700000CF910895811108C0603130F4862FB0
S1130B808F7080680E944F040895813041F4603171
S1130B9040F4862F8F70806C0E944F04089588E083
S1130BA0089588E00895EF92FF921F93CF93DF9307
S1130BB07C01FC018081C0E0D0E010E008C00E940C
S1130BC02A05182B2196F701EC0FFD1F8081811156
S1130BD0F6CF812FDF91CF911F91FF90EF90089571
S1130BE0CF93DF93CDB7DEB72A970FB6F894DEBF65
S1130BF00FBECDBFDC01CB014AE0BE016F5F7F4F6A
S1130C000E94BA0FCE0101960E94D3052A960FB610
S1130C10F894DEBF0FBECDBFDF91CF910895CF937F
S1130C20DF930097A9F1EC01698140E088810E947B
S1130C30B2086B8140E08A810E94B2086D8140E075
S1130C408C810E94B208698141E088810E94EC088D
S1130C506B8141E08A810E94EC086D8141E08C81C6
S1130C600E94EC086F8141E08E810E94B208698580
S1130C7041E088850E94B2086B8541E08A850E9424
S1130C80B2086D8541E08C850E94B20880E001C005
S1130C9087E0DF91CF910895DF92EF92FF920F9357
S1130CA01F93CF93DF931F92CDB7DEB77C0107E686
S1130CB010E0F801678141E086810E94EC08F801A8
S1130CC0618541E080850E94EC08F801638541E07C
S1130CD082850E94EC08F801658541E084850E94C4
S1130CE0EC0800E0D12C42C0E7E6F0E06781600F39
S1130CF040E086810E94EC0810E02DC0E7E6F0E0B9
S1130D006181610FAE014F5F5F4F80810E9467096F
S1130D10898181111FC00AC0E7E6F0E06181610F9B
S1130D20AE014F5F5F4F80810E94670989818823EC
S1130D3099F3802F90E0FC01EE0FFF1FE80FF91FDD
S1130D40EB5BFE4FE10FF11D8081F7018083DD2411
S1130D50D39403C01F5F133088F2E7E6F0E06781A5
S1130D60600F41E086810E94EC080F5F043008F4B4
S1130D70BBCFF1E0DF1619F08EE4F701808380E049
S1130D800F90DF91CF911F910F91FF90EF90DF9023
S1130D900895CF93DF93EC0141E0698188810E943B
S1130DA0B208811108C041E06A8188810E94B208BA
S1130DB0811103C003C089E001C089E0DF91CF91B4
S1130DC00895CF93DF93EC0141E0698188810E940B
S1130DD0EC08811108C040E06A8188810E94EC0817
S1130DE0811103C003C089E001C089E0DF91CF9184
S1130DF00895CF93DF93EC0140E0698188810E94DC
S1130E00EC08811108C041E06A8188810E94EC08E5
S1130E10811103C003C089E001C089E0DF91CF9153
S1130E200895CF93DF93EC0140E0698188810E94AB
S1130E30EC08811108C040E06A8188810E94EC08B6
S1130E40811103C003C089E001C089E0DF91CF9123
S1130E50089580915E018F5F80935E0190915C01A3
S1130E60891760F480915A01811103C00E94C7035D
S1130E7010C0813071F40E94DB030BC020915B0130
S1130E80821728F4891718F00E94170402C01092E0
S1130E905E0184E890E00E94D3070895CF9384E82C
S1130EA090E00E949A07C82F0E94B3038C2B19F478
S1130EB091E090935F01CF91089590915F01992300
S1130EC031F1923069F490915D01981307C09091CB
S1130ED05B01961303C090915A01941310925E0122
S1130EE080935D0160935B0140935A01689FC00148
S1130EF0112464E670E00E948C0F60935C0184E826
S1130F0090E00E94BA0792E090935F0108958AE00E
S1130F10089580915F01823059F4809184000E9489
S1130F20CC0710925E0183E080935F0180E0089516
S1130F308AE008951F93CF93DF93009791F0FC010B
S1130F402081233080F421812A3078F4EC010E943E
S1130F50440B182F68818D819E810E946E0D812B18
S1130F6005C083E003C083E001C083E0DF91CF913B
S1130F701F910895009751F0FC012081233040F423
S1130F8021812A3038F40E94CD0B089583E008951E
S1130F9083E0089583E00895833018F40E94190DC6
S1130FA0089583E00895009751F0FC0120812330D7
S1130FB040F421812A3038F40E94460D089583E0DC
S1130FC0089583E0089583E0089541E063E081E0BB
S1130FD00E94EC088AE18A95F1F700C040E063E0E2
S1130FE081E00E94EC08089580916501909166016A
S1130FF0A0916701B09168010196A11DB11D809374
S1131000650190936601A0936701B0936801089508
S113101080916401811114C00E94F30D62E082E0AA
S11310200E94D20981E080936401109265011092BC
S1131030660110926701109268010E94DB0D089509
S113104080916401813009F050C00E94E50D0E9436
S1131050F50D80937D018091650190916601A091C9
S11310606701B091680180937E0190937F01A09302
S11310708001B093810120917D0180917E01909146
S11310807F01A0918001B0918101BA2FA92F982FDF
S11310908827BC01CD01620F711D811D911D0E9425
S11310A0D50E2DEC3CE349E654E40E94340E6093E3
S11310B060017093610180936201909363011092C7
S11310C07E0110927F011092800110928101109292
S11310D065011092660110926701109268011092E6
S11310E0640163E082E00E94D209089541E063E074
S11310F081E00E94B20840E062E081E00E94B20810
S113110040E062E081E00E94EC0863E082E00E943B
S1131110D20980E00E948B0D81E00E94BA0D0895EF
S11311200E94CE0D0E94680A0E94F70D08950E9445
S1131130D60D0E94640A08950E94E507609160013B
S113114070916101809162019091630108950E9400
S1131150EC0D08950E94540A08950E9476000E949E
S1131160EB00FDCF6830A0F581110BC08AB350E0CD
S113117002C0440F551F6A95E2F7482B4ABB80E032
S11311800895813059F487B350E002C0440F551FCD
S11311906A95E2F7482B47BB80E00895823059F402
S11311A084B350E002C0440F551F6A95E2F7482B00
S11311B044BB80E00895833069F481B350E002C0F9
S11311C0440F551F6A95E2F7482B41BB80E0089510
S11311D081E0089582E00895683008F074C08111B8
S11311E01BC0413061F42BB381E090E002C0880F52
S11311F0991F6A95E2F7822B8BBB80E008952BB38D
S113120081E090E002C0880F991F6A95E2F780950B
S113121082238BBB80E008958130D9F4413061F49E
S113122028B381E090E002C0880F991F6A95E2F725
S1131230822B88BB80E0089528B381E090E002C04F
S1131240880F991F6A95E2F78095822388BB80E016
S113125008958230D9F4413061F425B381E090E0FF
S113126002C0880F991F6A95E2F7822B85BB80E044
S1131270089525B381E090E002C0880F991F6A9514
S1131280E2F78095822385BB80E008958330E9F4FA
S1131290413061F422B381E090E002C0880F991FCD
S11312A06A95E2F7822B82BB80E0089522B381E045
S11312B090E002C0880F991F6A95E2F78095822317
S11312C082BB80E0089581E0089582E0089568304B
S11312D008F064C0811117C079B381E090E09C01EB
S11312E0062E02C0220F331F0A94E2F7872F90E0E4
S11312F08223932302C0969587956A95E2F7FA01B3
S1131300808380E008958130B9F476B381E090E081
S11313109C01062E02C0220F331F0A94E2F7872F86
S113132090E08223932302C0969587956A95E2F70D
S1131330FA01808380E008958230B9F473B381E0C8
S113134090E09C01062E02C0220F331F0A94E2F79C
S1131350872F90E08223932302C0969587956A9500
S1131360E2F7FA01808380E008958330C9F470B312
S113137081E090E09C01062E02C0220F331F0A94E4
S1131380E2F7872F90E08223932302C096958795F6
S11313906A95E2F7FA01808380E0089581E0089578
S11313A082E00895833008F070C0643008F06FC0A4
S11313B0811128C0613071F028F0623099F06330F7
S11313C0C9F067C085B78E7F85BF85B78D7F85BF20
S11313D080E0089585B7816085BF85B78D7F85BF1F
S11313E080E0089585B78E7F85BF85B7826085BF0D
S11313F080E0089585B7816085BF85B7826085BF29
S113140080E00895813081F5613071F028F0623018
S113141099F06330C9F020C085B78B7F85BF85B74D
S1131420877F85BF80E019C085B7846085BF85B795
S1131430877F85BF80E011C085B78B7F85BF85B767
S1131440886085BF80E009C085B7846085BF85B7A3
S1131450886085BF80E001C084E09BB790689BBF33
S11314609AB790689ABF08958230A9F4623019F04F
S1131470633031F012C084B78F7B84BF80E008955D
S113148084B7806484BF80E0089584E0089584E094
S1131490089584E0089580E0089584E00895909389
S11314A06E0180936D01089590936C0180936B019C
S11314B008958BB78F7B8BBF08958AB780648ABFEA
S11314C08BB780648BBF08958BB78F7D8BBF0895D6
S11314D08BB780628BBF8AB780628ABF08951F92E0
S11314E00F920FB60F9211242F933F934F935F9354
S11314F06F937F938F939F93AF93BF93EF93FF93D8
S1131500E0916D01F0916E010995FF91EF91BF910A
S1131510AF919F918F917F916F915F914F913F9187
S11315202F910F900FBE0F901F9018951F920F923E
S11315300FB60F9211242F933F934F935F936F93A2
S11315407F938F939F93AF93BF93EF93FF93E09118
S11315506901F0916A010995FF91EF91BF91AF91F3
S11315609F918F917F916F915F914F913F912F91B7
S11315700F900FBE0F901F9018951F920F920FB6E9
S11315800F9211242F933F934F935F936F937F9305
S11315908F939F93AF93BF93EF93FF93E0916B016E
S11315A0F0916C010995FF91EF91BF91AF919F91DB
S11315B08F917F916F915F914F913F912F910F90F8
S11315C00FBE0F901F9018951F920F920FB60F9297
S11315D011242F933F934F935F936F937F938F9334
S11315E09F93AF93BF93EF93FF9380917601909174
S11315F07701892B41F088B78E7F88BFE09176010F
S1131600F09177010995FF91EF91BF91AF919F916F
S11316108F917F916F915F914F913F912F910F9097
S11316200FBE0F901F9018951F920F920FB60F9236
S113163011242F933F934F935F936F937F938F93D3
S11316409F93AF93BF93EF93FF9380917401909115
S11316507501892B41F088B78B7F88BFE0917401B5
S1131660F09175010995FF91EF91BF91AF919F9111
S11316708F917F916F915F914F913F912F910F9037
S11316800FBE0F901F901895009709F478C0FC01C5
S11316902081233008F075C031813A3008F073C0DE
S11316A0213019F120F0223009F450C06EC012BE6E
S11316B013BE1CBEFC01228122BF23B7206823BFB6
S11316C023B72F7B23BF23B7277F23BF23B72F7EC7
S11316D023BF23B72F7D23BF8481813009F057C0F6
S11316E089B7816089BF80E008951CBC1DBC1FBC04
S11316F01EBC1BBC1ABCFC01228133813DBD2CBD28
S11317002FB528602FBD2FB524602FBD2FB52E7F98
S11317102FBD2FB52D7F2FBD2EB52F7E2EBD2EB5FF
S1131720277F2EBD2FB52F7B2FBD2FB52F772FBD34
S11317302FB52F7E2FBD2FB52F7D2FBD84818130F6
S113174041F589B7846089BF80E0089514BC15BC55
S113175013BC14BC25B52F7B25BD25B5277F25BD1E
S113176025B52F7E25BD25B52F7D25BDFC018481A2
S1131770813089F489B7806489BF80E0089583E06B
S1131780089583E0089583E0089583E0089580E058
S1131790089580E0089580E00895009709F43BC11E
S11317A0DC012C91233008F038C11196EC91EA3019
S11317B008F035C1213009F468C020F0223009F462
S11317C0C7C02FC18E2F90E08A30910508F02BC13D
S11317D0FC01E65DFF4F0C94A00F83B78E7F83BF9F
S11317E083B78D7F83BF83B78B7F83BF80E00895EA
S11317F083B7816083BF83B78D7F83BF83B78B7FBC
S113180083BF80E0089583B78E7F83BF83B78260F0
S113181083BF83B78B7F83BF80E0089583B78160E4
S113182083BF83B7826083BF83B78B7F83BF80E02E
S1131830089583B78E7F83BF83B78D7F83BF83B7BC
S1131840846083BF80E0089583B7816083BF83B7DA
S11318508D7F83BF83B7846083BF80E0089583B79F
S11318608E7F83BF83B7826083BF83B7846083BF67
S113187080E0089583B7816083BF83B7826083BFAC
S113188083B7846083BF80E008958E2F90E08A3010
S1131890910508F0CAC0FC01EC5CFF4F0C94A00F4A
S11318A08EB58E7F8EBD8EB58D7F8EBD8EB58B7FB2
S11318B08EBD80E008958EB581608EBD8EB58D7F1E
S11318C08EBD8EB58B7F8EBD80E008958EB58E7FE4
S11318D08EBD8EB582608EBD8EB58B7F8EBD80E051
S11318E008958EB581608EBD8EB582608EBD8EB535
S11318F08B7F8EBD80E008958EB58E7F8EBD8EB5B4
S11319008D7F8EBD8EB584608EBD80E008958EB5CA
S113191081608EBD8EB58D7F8EBD8EB584608EBD8B
S113192080E008958EB58E7F8EBD8EB582608EBDAB
S11319308EB584608EBD80E008958EB581608EBDC5
S11319408EB582608EBD8EB584608EBD80E00895B4
S11319508E2F90E08830910508F069C0FC01E25CAC
S1131960FF4F0C94A00F85B58B7F85BD85B58D7F0A
S113197085BD85B58E7F85BD80E0089585B584607D
S113198085BD85B58D7F85BD85B58E7F85BD80E0A0
S1131990089585B58B7F85BD85B5826085BD85B588
S11319A08E7F85BD80E0089585B5846085BD85B54D
S11319B0826085BD85B58E7F85BD80E0089585B53F
S11319C08B7F85BD85B58D7F85BD85B5816085BDE2
S11319D080E0089585B5846085BD85B58D7F85BD1E
S11319E085B5816085BD80E0089585B58B7F85BD13
S11319F085B5826085BD85B5816085BD80E008952B
S1131A0085B5846085BD85B5826085BD85B58160F9
S1131A1085BD80E0089583E0089583E0089583E020
S1131A20089583E0089583E0089583E0089583E0B2
S1131A300895833038F5813079F018F08230B9F0A8
S1131A4023C083B78E7F83BF83B78D7F83BF83B764
S1131A508B7F83BF80E008958EB58E7F8EBD8EB55B
S1131A608D7F8EBD8EB58B7F8EBD80E0089585B54C
S1131A708B7F85BD85B58D7F85BD85B58E7F85BD05
S1131A8080E0089583E0089583E008950097F1F0DD
S1131A90FC0120812330E0F431813A30D8F4213044
S1131AA049F018F0223069F017C0FC01828182BF2E
S1131AB080E00895FC01828193819DBD8CBD80E00E
S1131AC00895FC01828184BD80E0089583E0089537
S1131AD083E0089583E0089583E008950097A9F0D2
S1131AE06330A8F4613059F020F0623091F083E063
S1131AF00895909377018093760180E00895909300
S1131B0075018093740180E0089583E0089583E073
S1131B10089580E00895843048F514BC813071F054
S1131B2028F0823099F08330C9F022C085B5877FD0
S1131B3085BD85B58F7B85BD80E0089585B5877F9C
S1131B4085BD85B5806485BD80E0089585B58860D0
S1131B5085BD85B58F7B85BD80E0089585B588609A
S1131B6085BD85B5806485BD80E0089581E00895D4
S1131B7081E00895883070F480937301909172012C
S1131B80913051F495B5987F892B95B5892B85BDF6
S1131B9080E0089581E0089580E0089588B7806426
S1131BA088BF89B7806489BF80E0089589B78F7B37
S1131BB089BF80E0089595B580917301892B85BD17
S1131BC081E08093720180E0089585B5887F85BDAA
S1131BD01092720180E00895009721F090937101B2
S1131BE080937001089514BC089584B508958FB747
S1131BF080688FBF08951F920F920FB60F92112421
S1131C002F933F934F935F936F937F938F939F9300
S1131C10AF93BF93EF93FF9380916F018F5F809396
S1131C206F0190918B00891309C0E0917001F091CC
S1131C307101309719F010926F010995FF91EF919E
S1131C40BF91AF919F918F917F916F915F914F91D0
S1131C503F912F910F900FBE0F901F9018950E94E7
S1131C60120F08F481E008950E94480E0C944D0F61
S1131C700E94460F58F00E943F0F40F029F45F3F46
S1131C8029F00C94360F51110C94810F0C943C0FD5
S1131C900E945E0F68F39923B1F3552391F3951BCA
S1131CA0550BBB27AA2762177307840738F09F5F79
S1131CB05F4F220F331F441FAA1FA9F335D00E2EE6
S1131CC03AF0E0E832D091505040E695001CCAF753
S1131CD02BD0FE2F29D0660F771F881FBB1F261716
S1131CE037074807AB07B0E809F0BB0B802DBF01ED
S1131CF0FF2793585F4F3AF09E3F510578F00C94BC
S1131D00360F0C94810F5F3FE4F3983ED4F386952D
S1131D1077956795B795F7959F5FC9F7880F911DDC
S1131D209695879597F90895E1E0660F771F881FC8
S1131D30BB1F621773078407BA0720F0621B730B7B
S1131D40840BBA0BEE1F88F7E09508950E94660F86
S1131D5088F09F5798F0B92F9927B751B0F0E1F068
S1131D60660F771F881F991F1AF0BA95C9F714C018
S1131D70B13091F00E94800FB1E008950C94800F6F
S1131D80672F782F8827B85F39F0B93FCCF3869551
S1131D9077956795B395D9F73EF4909580957095AE
S1131DA061957F4F8F4F9F4F0895E89409C097FB2B
S1131DB03EF490958095709561957F4F8F4F9F4F1E
S1131DC09923A9F0F92F96E9BB279395F695879562
S1131DD077956795B795F111F8CFFAF4BB0F11F425
S1131DE060FF1BC06F5F7F4F8F4F9F4F16C08823CC
S1131DF011F096E911C0772321F09EE8872F762F02
S1131E0005C0662371F096E8862F70E060E02AF042
S1131E109A95660F771F881FDAF7880F969587952E
S1131E2097F90895990F0008550FAA0BE0E8FEEF03
S1131E3016161706E807F907C0F012161306E4078A
S1131E40F50798F0621B730B840B950B39F40A2683
S1131E5061F0232B242B252B21F408950A2609F461
S1131E60A140A6958FEF811D811D089597F99F6765
S1131E7080E870E060E008959FEF80EC089500240E
S1131E800A941616170618060906089500240A94DB
S1131E9012161306140605060895092E0394000C61
S1131EA011F4882352F0BB0F40F4BF2B11F460FFF0
S1131EB004C06F5F7F4F8F4F9F4F089557FD905819
S1131EC0440F551F59F05F3F71F04795880F97FBFA
S1131ED0991F61F09F3F79F08795089512161306B4
S1131EE01406551FF2CF4695F1DF08C016161706E3
S1131EF01806991FF1CF8695710561050894089518
S1131F00E894BB2766277727CB0197F908950E94A9
S1131F10120F08F48FEF089597FB072E16F4009420
S1131F2007D077FD09D00E94A60F07FC05D03EF428
S1131F30909581959F4F0895709561957F4F089571
S1131F40EE0FFF1F0590F491E02D0994AA1BBB1B13
S1131F5051E107C0AA1FBB1FA617B70710F0A61BA5
S1131F60B70B881F991F5A95A9F780959095BC01C6
S1131F70CD010895BB274A3031F4992322F4BDE200
S1131F80909581959F4F0C94C60FBB27FB01552755
S1131F90AA27880F991FAA1FA41710F0A41B8395C2
S1131FA05051B9F7A05DAA3308F0A95DA193009739
S1131FB079F7B111B1931192CB010C94DF0FDC01CD
S1131FC0FC01672F71917723E1F7329704C07C916C
S1131FD06D9370836291AE17BF07C8F30895F894A8
S1051FE0FFCF2D
S1131FE201077CE1016C0002000201020202030209
S1131FF204020502060300000100030403040305AE
S1132002030603070007F800012907014C656674FB
S1132012005269676874004D6F746F722073746143
S113202272747320696E0032205365632E00536507
S113203274204465662E20526F742E0044697374B2
S11320423A200020636D0053706565643A3330258D
S113205220004469723A460053706565643A35302B
S113206225200053706565643A3025004469723A4C
S1132072530053706565643A313030250044697207
S11320823A520053706565643A30252000446972FF
S11320923A62004D6F746F722053746F707065648E
S11320A200547279696E6720616761696E20696E96
S11320B2003120736563004D4F544F5220696E20E6
S11320C249444C45003132333435363738392A30B5
S10520D22300E5
S9030000FC
