:1000000020E0A0E6B0E001C01D92AE36B207E1F7F5
:10001000E1E6F0E0118281E48083128291E0948332
:100020008383158292E097838683108693E092877C
:1000300081871386CF010E94C00184E690E00E9470
:10004000C00187E690E00E94C0018AE690E00E942D
:10005000C00162E084E40E94F80110926D001092E9
:100060006000789485B7816085BF85B7826085BF61
:100070008BB780648BBF089580916000882341F125
:1000800020916D00283098F42F5F20936D0010921E
:100090006000253088F02550330BC901880F991F67
:1000A000820F931F8F599F4F0E94DB01089510927A
:1000B0006D001092600020E02150330BC901880FC1
:1000C000991F820F931F8F599F4F0E94CD01089552
:1000D00008958F9381E0809360008F911895833409
:1000E00009F449C098F4813411F1823471F441115A
:1000F00037C027B381E090E002C0880F991F6A954E
:10010000E2F78095822387BB08950895843471F4C3
:1001100041114AC021B381E090E002C0880F991FCD
:100120006A95E2F78095822381BB08950895411175
:100130000CC02AB381E090E002C0880F991F6A9535
:10014000E2F7809582238ABB08958AB321E030E0EC
:1001500002C0220F331F6A95E2F7822B8ABB0895F3
:1001600087B321E030E002C0220F331F6A95E2F727
:10017000822B87BB089541110CC024B381E090E02D
:1001800002C0880F991F6A95E2F78095822384BB8D
:10019000089584B321E030E002C0220F331F6A9536
:1001A000E2F7822B84BB089581B321E030E002C0E6
:1001B000220F331F6A95E2F7822B81BB08958334A7
:1001C00009F449C098F4813411F1823471F4411179
:1001D00037C028B381E090E002C0880F991F6A956C
:1001E000E2F78095822388BB08950895843471F4E2
:1001F00041114AC022B381E090E002C0880F991FEC
:100200006A95E2F78095822382BB08950895411193
:100210000CC02BB381E090E002C0880F991F6A9553
:10022000E2F7809582238BBB08958BB321E030E009
:1002300002C0220F331F6A95E2F7822B8BBB089511
:1002400088B321E030E002C0220F331F6A95E2F745
:10025000822B88BB089541110CC025B381E090E04A
:1002600002C0880F991F6A95E2F78095822385BBAB
:10027000089585B321E030E002C0220F331F6A9554
:10028000E2F7822B85BB089582B321E030E002C003
:10029000220F331F6A95E2F7822B82BB08958334C5
:1002A00051F180F48134E1F0823459F488B321E0D3
:1002B00030E002C0220F331F6A95E2F7822788BB25
:1002C00008950895843459F482B321E030E002C0E7
:1002D000220F331F6A95E2F7822782BB08950895A3
:1002E0008BB321E030E002C0220F331F6A95E2F7A2
:1002F00082278BBB089585B321E030E002C0220F36
:10030000331F6A95E2F7822785BB0895E42FF52F06
:10031000833439F178F48134D1F0823451F486B3E6
:1003200090E002C0959587956A95E2F78170808389
:1003300008950895843451F480B390E002C09595F7
:1003400087956A95E2F7817080830895089589B34F
:1003500090E002C0959587956A95E2F78170808359
:10036000089583B390E002C0959587956A95E2F76A
:100370008170808308950E9408000E943C00FDCF98
:10038000CF93DF93C82FD92F41E0698188810E94E4
:100390006F001A82DF91CF910895CF93DF93C82F1A
:1003A000D92F41E0698188810E94DF0081E08A8342
:1003B000DF91CF910895CF93DF93C82FD92F40E0DD
:1003C000698188810E94DF001A82DF91CF910895B0
:1003D000CF93DF93C82FD92F698188810E944F0165
:1003E00081E09A81911180E08A83DF91CF91089515
:0E03F00040E00E946F0008950E94860108956B
:00000001FF
