:100000000C942A000C9447000C9447000C94470071
:100010000C9447000C9447000C9447000C94470044
:100020000C9447000C9447000C9447000C94470034
:100030000C9447000C94A0020C94C7020C94470047
:100040000C9447000C9447000C9447000C94470014
:100050000C94470011241FBECFE5D8E0DEBFCDBF12
:1000600010E0A0E6B0E0E0EEF5E002C005900D92F1
:10007000A83AB107D9F721E0A8EAB0E001C01D9283
:10008000A630B207E1F70E947F000C94EE020C94B8
:10009000000082E990E00E9425011092A9000895D5
:1000A000CF93DF931F92CDB7DEB7BE016F5F7F4F57
:1000B00082E990E00E94D80189818130E1F4809149
:1000C000A80081110CC04EE050E060E670E082E9CB
:1000D00090E00E94600181E08093A8000CC0813014
:1000E00051F449EA50E06AEA70E082E990E00E9447
:1000F000A7011092A8000F90DF91CF9108950E9460
:1001000049000E945000FDCFCF93DF931F92CDB7DF
:10011000DEB719828091DD0081110DC08091ED0064
:100120008983CE0101960E946F028091DD008F5F6E
:100130008093DD0025C090E02091EC003091ED002F
:100140002150310982179307A0F4E091EA00F09161
:10015000EB008E0F9F1FFC01319780818983CE01B8
:1001600001960E946F028091DD008F5F8093DD0019
:1001700007C01092DD000E94630281E08093960028
:100180000F90DF91CF910895CF93DF931F92CDB75A
:10019000DEB719828091DC00823018F5CE0101961D
:1001A0000E947D02E091E000F091E1002091DC00EE
:1001B000422F50E0440F551F440F551F440F551F49
:1001C000898190E002C0880F991F4A95E2F740812B
:1001D0005181842B952B918380832F5F2093DC00AA
:1001E00030C090E0E091E000F091E10020813181A9
:1001F0008217930730F5CE0101960E947D02AEED85
:10020000B0E02D913C9111978091DC00E82FF0E057
:100210003297E20FF31F998190838F5F8093DC0008
:1002200090E01296ED91FC91139720813181821715
:10023000930738F01092DC000E946B0281E08093FB
:1002400096000F90DF91CF910895CF93DF930097A1
:1002500069F1DC0111962C911197233048F5EC914E
:10026000F0E0EE0FFF1FEE0FFF1FEA50FF4F31814E
:10027000311120C0EC01222319F02330E8F404C02E
:100280008A819B810E940A02E881F0E0EE0FFF1F45
:10029000EE0FFF1FEA50FF4F88819981AA81BB8131
:1002A00080839183A283B38380E007C081E005C08F
:1002B00081E003C082E001C084E0DF91CF91089526
:1002C000CF93DF931F92CDB7DEB7009789F1DC01A2
:1002D000EC91E33078F5F0E0EE0FFF1FEE0FFF1F1B
:1002E000EA50FF4F2181233038F56115710531F156
:1002F0004115510529F111968C91882321F0833005
:1003000008F184E020C0109296004E5F5F4FEAEE45
:10031000F0E053834283718360834983CE01019669
:100320000E946F0284E890E00E94920280E00BC07D
:1003300081E009C081E007C083E005C085E003C01B
:1003400085E001C080E00F90DF91CF910895009784
:1003500039F1DC01EC91E33028F5F0E0EE0FFF1FFE
:10036000EE0FFF1FEA50FF4F21812330E8F4119672
:100370008C91882321F08330C8F084E00895DA015D
:10038000109296001D921C92EEEDF0E05383428392
:100390007183608384EC90E00E94990280E008956C
:1003A00081E0089581E0089583E0089580E0089554
:1003B000009741F1DC01EC91E33030F5F0E0EE0F15
:1003C000FF1FEE0FFF1FEA50FF4F21812330F0F493
:1003D00011968C91813051F018F0823069F018C07C
:1003E00080919600FB01808380E0089580919700C2
:1003F000DB018C9380E0089580919800FB0180835D
:1004000080E0089581E0089581E0089583E00895F3
:1004100084E00895FC01238130E0220F331F220F76
:10042000331F220F331F608180E4689FB0011124C5
:10043000928180E1989FA001112434819181892FBC
:1004400090E0880F991F2068262B422B432B842B8A
:1004500080BD2BB19581892F90E0880F991F922F35
:100460009C7F892B8BB9218580E1289FA0011124D5
:100470009285292F30E0220F331F220F331F220FC6
:10048000331F918196959695892F90E0880F991F3B
:10049000880F991F9AB1242B822B9370892B8AB9CC
:1004A000858589B9868580BD8385813031F08485D5
:1004B000813019F08085813009F4789408958AB1EB
:1004C00080628AB908958AB18F7D8AB908958AB108
:1004D00080688AB908958AB18F778AB908955D9B3B
:1004E000FECFFC0120812CB9529B06C02AB190811D
:1004F000822F8E7F892B8AB90895FC015F9BFECFE6
:100500002CB1422F50E051834083529B0AC09AB1D4
:100510009270292F30E0220F331F242B352B31838B
:100520002083089590930501809304010E945F0247
:10053000089590930301809302010E946702089539
:100540001F920F920FB60F9211242F933F934F9348
:100550005F936F937F938F939F93AF93BF93EF932B
:10056000FF93E0910201F09103010995FF91EF9152
:10057000BF91AF919F918F917F916F915F914F91BB
:100580003F912F910F900FBE0F901F9018951F92C3
:100590000F920FB60F9211242F933F934F935F93B7
:1005A0006F937F938F939F93AF93BF93EF93FF933B
:1005B000E0910401F09105010995FF91EF91BF9140
:1005C000AF919F918F917F916F915F914F913F91EB
:1005D0002F910F900FBE0F901F901895F894FFCF9A
:1005E00042434D204F7065726174696E6700000070
:1005F00000000000000000000000000000000000FB
:1006000000000000000000000000000000000000EA
:10061000000000009900010000000300000000013C
:0806200001010101010033009A
:00000001FF
