:100000000C942A000C9471000C943C000C943C005D
:100010000C943C000C943C000C943C000C943C0070
:100020000C943C000C943C000C943C000C943C0060
:100030000C943C000C943C000C943C000C943C0050
:100040000C943C000C943C000C943C000C943C0040
:100050000C943C0011241FBECFE5D8E0DEBFCDBF1D
:1000600020E0A0E6B0E001C01D92A136B207E1F7A2
:100070000E943E000C9487000C94000081B38460C1
:1000800081BB8AB381608ABB8AB382608ABB8AB330
:1000900084608ABB789485B7836085BF8BB78064A2
:1000A0008BBF80916000813081F028F0823089F030
:1000B000833099F0F6CF8BB38E7F8BBB8BB38D7F64
:1000C0008BBB8BB38B7F8BBBECCF8BB381608BBB3C
:1000D000E8CF8BB382608BBBE4CF8BB384608BBBE8
:1000E000E0CF1F920F920FB60F9211248F93809141
:1000F0006000833020F48F5F8093600002C0109214
:1001000060008F910F900FBE0F901F901895F8947C
:02011000FFCF1F
:00000001FF
